:020000040000FA
:04003B00020030008F
:0D300000C0E0439A80E59A20E0FBD0E0326A
:10602000028804E94A4B70012212007042FF6D7031
:106030000122EF7004FBFAF92209E970EC0A80E909
:10604000D2E8220201FCCC3098FDAF99C2987E00C4
:106050002200220201FDDA286E756C6C29004D4386
:10606000460A0D0090002CA7E0FF220202325343A3
:106070008F02220202315622222222020253623E63
:106080003E2000456E7465722050617373776F72A5
:10609000642000202121554E53454355524521216E
:1060A0002000636F6D6D616E640073686F7274635E
:1060B000757400636F6D6D616E642066756E6374D8
:1060C000696F6E616C206465736372697074696F67
:1060D0006E0068656C70003F00646973706C617974
:1060E0002068656C70206D657373616765732066E9
:1060F0006F72206D656E7573007265626F6F7400EC
:106100007262005265626F6F742074686520646506
:106110007669636520776974686F75742063686158
:106120006E67696E672073657474696E6773006D5E
:106130006573736167655F6672616D6573006D6637
:10614000006F757470757420746865206461746183
:106150002061727261797320686F6C64696E672068
:1061600074686520686F73742064617461006D6188
:10617000736B0072656164206F72207365742074A4
:106180006865204950207375626E6574206D617377
:106190006B00777269746500777200777269746555
:1061A000206461746120746F2074686520493243F3
:1061B00020454550524F4D00736C61766573746194
:1061C000747573310A0D00736C6176657374617454
:1061D0007573320A0D006669726D776172652031E0
:1061E0000A0D006669726D7761726520320A0D00D2
:1061F00073686F775F6465766963655F636F6E660A
:1062000069670031416D626967756F757320636FEF
:106210006D6D616E643A202573202564750A0D004A
:1062200032416D626967756F757320636F6D6D6163
:106230006E643A202573202564750A0D00556E6B37
:106240006E6F776E20636F6D6D616E643A2025739B
:106250000A0D000A53494D54454B20494E432E2008
:1062600064657669636520636F6E666967757261E0
:1062700074696F6E206D656E7520282573202573F7
:10628000290A0D0030332F31332F32360031303AA6
:1062900032313A34350020280029202020202020C7
:1062A000202020202020200000000D202D2D2D2D2D
:1062B0002D2D2D2D2D2D2D2D2D2D2D2D2D2D2D2D0E
:1062C0002D2D2D2D2D2D2D2D2020202D2D2D2D2D25
:1062D0002D2D2D2D2D2D2D2D2D2D2D2D2D2D2D2DEE
:1062E0002D2D2D2D2D2D2D2D2D2D2D2D2D2D2D2DDE
:1062F0002D2D2D2D2D2D0A0D0029002020252D328C
:106300003773202D2025730A0D000A0D00556E6B82
:106310006E6F776E2068656C7020706172616D655C
:106320007465722025730A0D005573616765203A04
:106330002072656164203C646576696365206164F0
:1063400064726573733E203C6D656D6F7279206178
:106350006464726573733E203C6D656D6F72792065
:106360006C656E6774683E0A0D0044657669636506
:106370002061646472657373206572726F722E0A95
:106380000D0025730A0054686520646576696365AD
:106390002061646472657373206973206F75742063
:1063A0006F662072616E67652E0A0D004E6F206D5C
:1063B000656D6F72792061646472657373207370A8
:1063C000656369666965640A0D004D656D6F727974
:1063D0002061646472657373206572726F722E0A35
:1063E0000D00546865206D656D6F7279206164647D
:1063F00072657373206973206F7574206F662072E5
:10640000616E67652E0A0D004E6F20726561642013
:106410006C656E677468207370656369666965642E
:106420000A0D004D656D6F7279206C656E6774683A
:10643000206572726F722E0A0D006C656E6774684B
:10644000203D20256C750A0D00546865206C656E32
:10645000677468206973206F7574206F662072619D
:106460006E67652E0A0D00204164647265737320A7
:106470002020203030203031203032203033203086
:106480003420303520303620303720303820303935
:1064900020304120304220304320304420304520FD
:1064A00030460A0D002020202020202020207C2D96
:1064B0002D2D2D2D2D2D2D2D2D2D2D2D2D2D2D2D0C
:1064C0002D2D2D2D2D2D2D2D2D2D2D2D2D2D2D2DFC
:1064D0002D2D2D2D2D2D2D2D2D2D2D2D2D2D2D2DEC
:1064E0002D0A0D0020416464726573732020202002
:1064F000002530326278200020202020202020201B
:10650000207C2D2D002D2D2D002030782530346459
:106510007820207C20200052656164204572726FD3
:10652000722E0A005573616765203A2070777220D9
:106530003C64657669636520616464726573733E6B
:10654000203C6D656D6F7279206164647265737350
:106550003E203C6D656D6F727920646174613E0A06
:106560000D004E6F206D656D6F72792064617461EE
:10657000207370656369666965640A0D004D656D19
:106580006F72792064617461206572726F722E0A75
:106590000D005468652064617461206973206F7513
:1065A00074206F662072616E67652E0A0D00577247
:1065B0006974652041646472657373203A20256CA8
:1065C000780A0D0057726974652044617461203A3D
:1065D00020005772697465204572726F720055739E
:1065E000616765202020202020202020203A0A0DED
:1065F00000777269746520746F2070726F6D20204F
:106600003A202573203C73746172745F6164647214
:106610003E203C656E645F616464723E203C646150
:1066200074613E0062616420617267756D656E74AD
:1066300020310A0D0062616420617267756D656EBC
:106640007420320A0D0062616420617267756D65A5
:106650006E7420330A0D0063686172616374657241
:10666000203A2025303262780A0D0073746172740A
:1066700020202020203A2025303262780A0D006543
:106680006E64202020202020203A2025303264789B
:106690000A0D006C656E677468202020203A202562
:1066A00064750A0D0072616E6765206572726F72A3
:1066B0000A0D00756E61626C6520746F20616C6CF0
:1066C0006F63617465207265717569726564206DB0
:1066D000656D6F72792073697A65006C656E202034
:1066E00020202020203A202564640A0D25730053C1
:1066F000696D74656B002A2A2A2A2A2A000D002552
:106700006300082008004E6F206D6F726520726F65
:106710006F6D20666F72206D656E752061646469AF
:106720006E670A0053797374656D206572726F72BB
:106730002C2066756E6374696F6E203C5554494C0D
:106740005F53746F6F6765733E2073686F756C6419
:10675000206E6F742062652063616C6C65640A0052
:10676000252D3234733A00202530326278000A0D2C
:10677000252D3234733A0000636865636B73756D61
:1067800020757064617465640A0D00444342204CB6
:10679000656E6774680030313233343536373839D6
:1067A00020000A0D496E76616C696420636861722D
:1067B000616374657220696E20495020616464725F
:1067C0006573732E205468652076616C696420635C
:1067D00068617261637465722073657420697320E7
:1067E0002730313233343536373839202E270A0DE9
:1067F000000A0D496E76616C69642063686172619C
:106800006374657220696E20706F7274206E756D8E
:106810006265720A0D005468652076616C696420B7
:106820006368617261637465722073657420697353
:1068300020273031323334353637383920270A0DA6
:10684000006D6163203A20005265616420457272D8
:106850006F722E00726561642066726F6D207072B7
:106860006F6D203A206D61630A0D0077726974655F
:1068700020746F2070726F6D20203A206D6163204C
:106880003C6F63746574313E203C6F637465743291
:106890003E203C6F63746574333E203C6F637465C7
:1068A00074343E203C6F63746574353E203C6F63E6
:1068B000746574363E00526561642D4261636B20DD
:1068C0004572726F7200496E636F6D706C657465AE
:1068D000204D414320616464726573733F0A0D006B
:1068E0005573616765203A206D6163203C6F637466
:1068F0006574313E203C6F63746574323E203C6F9A
:1069000063746574333E203C6F63746574343E2059
:106910003C6F63746574353E203C6F6374657436F8
:106920003E002573203A20257320282530346478D2
:106930002900726561642066726F6D2070726F6DE0
:10694000203A2025730A0D00777269746520746FF0
:106950002070726F6D20203A202573203C25732F04
:1069600025733E0052656164204572726F72004467
:1069700048435020436C69656E74006469736162BA
:106980006C6500656E61626C650055445020507204
:106990006F746F636F6C006F6666006F6E005443B8
:1069A000502050726F746F636F6C005544502042DA
:1069B000726F646163617374732052656369657695
:1069C0006564005472616E736D6974204D6F646507
:1069D0000073657276657200636C69656E7400524F
:1069E00065706F7274204D6574686F6400706F6CB1
:1069F0006C6564007265616C74696D6500537461E7
:106A000074757320427566006E616D65203A2025AD
:106A10007300726561642066726F6D2070726F6DB5
:106A2000203A206E616D650A0D00777269746520E9
:106A3000746F2070726F6D20203A206E616D65203A
:106A40003C63686172313E202E2E2E203C636861CB
:106A50007231353E0A0D002573203A2025697000F9
:106A6000777269746520746F2070726F6D20203AA0
:106A7000202573203C6F63746574313E2E3C6F6338
:106A8000746574323E2E3C6F63746574333E2E3CE5
:106A90006F63746574343E00496E636F6D706C652E
:106AA0007465204950763420616464726573733F65
:106AB0000A0D005573616765203A20686F73745F33
:106AC0006970203C6F63746574313E2E3C6F637453
:106AD0006574323E2E3C6F63746574333E2E3C6F9A
:106AE00063746574343E004465766963652053655C
:106AF000727665722049500044657669636520436B
:106B00006C69656E7420495000486F737420436C43
:106B100069656E7420495000486F73742053657224
:106B2000766572204950005375626E6574204D6120
:106B3000736B002573203A20002564750077726915
:106B4000746520746F2070726F6D20203A20257359
:106B5000203C776F72643E00496E76616C696420F8
:106B600063686172616374657220696E20706F7210
:106B700074206E756D6265723F0A0D005573616712
:106B800065203A202573203C776F72643E0044658F
:106B9000766963652053657276657220506F7274F2
:106BA0000044657669636520436C69656E742050A6
:106BB0006F72740044657669636520556E69636120
:106BC000737420506F727400446576696365204267
:106BD000726F61646361737420506F727400486FE8
:106BE00073742053657276657220506F727400481A
:106BF0006F737420436C69656E7420506F727400FB
:106C000064656661756C7473207570646174656425
:106C10002073756365737366756C6C790044656683
:106C200061756C7420444342205772697465204535
:106C300072726F7200444342205265616420457253
:106C4000726F7200526573657420746865206465A4
:106C50007669636520746F20746865206465666179
:106C6000756C742073657474696E67730A0D0052D5
:106C700065626F6F7420746865206465766963650A
:106C800020776974686F757420736176696E672008
:106C90006368616E6765730A0D002A2A2A2A2A2A08
:106CA0002A2A2A2A2A2A2A2A2A2A2A2A2A2A2A2A44
:106CB0002A2A2A2A2A2A2A2A2A2A2A2A2A2A2A2A34
:106CC0002A2A2A2A2A2A2A2A2A2A2A2A2A2A2A2A24
:106CD0002A2A2A2A2A2A2A2A0A0D00252D32347322
:106CE0003A2025303262780A0D0020204F70204370
:106CF0006F64650020204F7074696F6E0020204E15
:106D00006574776F726B00252D3234733A202564D9
:106D1000750A0D00202042726F61646361737420F4
:106D2000506F727400252D3234733A20256C780A26
:106D30000D00202053657276657249500025732539
:106D40007300676976656E2070617373776F726424
:106D5000203D202573206C3D25647520703D256401
:106D6000750A0D00214572726F7221203A20746FEE
:106D70006F206D616E792063686172616374657202
:106D80007320656E74657265640A0D0020202020F2
:106D900020202020202070617373776F726420633D
:106DA000616E206265206265747765656E203120B2
:106DB000616E642031302063686172616374657252
:106DC000730A0D0020202020202020202020616335
:106DD0006365707461626C6520636861726163747D
:106DE000657273206172652025730A0D002145725A
:106DF000726F7221203A20696E76616C696420633B
:106E000068617261637465727320696E206E657764
:106E10002070617373776F72640A0D00214572727E
:106E20006F7221203A206E6F206E6577207061733B
:106E300073776F726420676976656E2E0A0D002085
:106E4000557361676520203A206368616E67655FEE
:106E500070617373776F7264203C6E657720706128
:106E60007373776F72643E0A0D00214572726F7200
:106E700021203A20696E76616C69642070617373B9
:106E8000776F72642073746F7265640A0D00737497
:106E90006F7265642070617373776F7264207265BE
:106EA00073657420746F2064656675616C740A0D77
:106EB00000616C6C20636861727320666F756E642C
:106EC00020703D25647520652564750A0D00737476
:106ED0006F7265642070617373776F72642076617E
:106EE0006C69640A0D006E6F206D617463680A0D31
:106EF0000030313233343536373839616263646596
:106F0000666768696A6B6C6D6E6F707172737475A9
:106F1000767778794142434445464748494A4B4C45
:106F20004D4E4F505152535455565758595A21406F
:106F30002324255E262A28292D5F3D2B5B5D3A3BC5
:106F40003C3E2F00303132333435363738396162C8
:106F5000636465666768696A6B6C6D6E6F70717289
:106F6000737475767778794142434445464748497A
:106F70004A4B4C4D4E4F50515253545556575859F9
:106F80005A21402324255E262A28292D5F3D2B5B8C
:106F90005D3A3B3C3E2F00EB7008E709F608DFFA4C
:106FA000801B89828A831410E70AF593E0A3F60810
:106FB000DFFA8009F593E493A3F608DFF9ECFAA968
:106FC000F0EDFB2288F0EF60010E4E60F088F0EDEE
:106FD00060C51410E7E7CB700E88828C838B93E733
:106FE00009F0A3DFFA80D61410E72A89828A83F594
:106FF00093ECFAE0A3C8C582C8CCC583CCCBC593BB
:10700000CBF0A3C8C582C8CCC583CCCBC593CBDF9E
:10701000E2DEE080AA89828A83F593ECFAE493A306
:10702000C8C582C8CCC583CCCBC593CBF0A3C8C59B
:1070300082C8CCC583CCCBC593CBDFE1DEDF0200B9
:107040006FBFEB7002E72289828A831410E704F590
:1070500093E022F593E49322F8EB7006E7C828F357
:10706000E82289828A831410E708F593E0C828F0A3
:10707000E822F593E49322BB000327F722F8EB897B
:10708000828A831410E706F593E028F022F593E452
:10709000932822BB0002F722BB8000500989828A14
:1070A000838B931593F022EF8DF0A4A8F0CF8CF092
:1070B000A428CE8DF0A42EFE22C5F0F8A3E028F07F
:1070C000C5F0F8E582158270021583E038F022A33E
:1070D000F8E0C5F025F0F0E582158270021583E036
:1070E000C838F0E822EB7007E7F5F009E7192289C4
:1070F000828A831410E708F593E0F5F0A3E022F507
:1071000093E493F5F074019322BB000B09C5F027BB
:10711000F7C5F01937F722F8EB89828A831410E754
:1071200007F593E8020070B9F59374019325F0F523
:10713000F0E4933822BB0006F709A7F01922BB80C0
:1071400000500D89828A838B931593F0E5F0A3F0AC
:1071500022E88FF0A4CC8BF0A42CFCE98EF0A42CB8
:10716000FC8AF0EDA42CFCEA8EF0A4CDA8F08BF004
:10717000A42DCC3825F0FDE98FF0A42CCD35F0FC02
:10718000EB8EF0A4FEA9F0EB8FF0A4CFC5F02ECDCE
:1071900039FEE43CFCEAA42DCE35F0FDE43CFC22B3
:1071A00075F008758200EF2FFFEE33FECD33CDCCA6
:1071B00033CCC58233C5829BED9AEC99E582984029
:1071C0000CF582EE9BFEED9AFDEC99FC0FD5F0D606
:1071D000E4CEFBE4CDFAE4CCF9A88222B800C1B930
:1071E0000059BA002DEC8BF084CFCECDFCE5F0CB6E
:1071F000F97818EF2FFFEE33FEED33FDEC33FCEBA7
:1072000033FB10D703994004EB99FB0FD8E5E4F961
:10721000FA227818EF2FFFEE33FEED33FDEC33FC4E
:10722000C933C910D7059BE99A4007EC9BFCE99A42
:10723000F90FD8E0E4C9FAE4CCFB2275F010EF2F87
:10724000FFEE33FEED33FDCC33CCC833C810D70787
:107250009BEC9AE899400AED9BFDEC9AFCE899F8C2
:107260000FD5F0DAE4CDFBE4CCFAE4C8F922CFF490
:10727000CFCEF4CECDF4CDCCF4CC22C3E49FFFE44A
:107280009EFEE49DFDE49CFC22EB9FF5F0EA9E420D
:10729000F0E99D42F0EC6480C864809845F022EBF0
:1072A0009FF5F0EA9E42F0E99D42F0E89C45F0220D
:1072B000E8600FECC313FCED13FDEE13FEEF13FFBC
:1072C000D8F122E86010ECA2E713FCED13FDEE13F9
:1072D000FEEF13FFD8F022E8600FEFC333FFEE3369
:1072E000FEED33FDEC33FCD8F122EB7006E9F80239
:1072F00000777489828A831410E706F59302007779
:1073000080F5930200778CBB0006E9F80200779CB9
:10731000BB8000500C89828A838B93159302007383
:1073200057227401FF3395E0FEFDFCA3A3A3E0CF39
:107330002FF0E582158270021583E0CE3EF0E582E3
:10734000158270021583E0CD3DF0E5821582700252
:107350001583E0CC3CF022ECF0A3EDF0A3EEF0A31B
:10736000EFF022A42582F582E5F03583F58322EB48
:107370007006E9F8020077A889828A831410E7066C
:10738000F593020077B1F593020077DAD093D083BA
:10739000D082F8E4937012740193700DA3A393F854
:1073A000740193F5828883E4737402936860EFA399
:1073B000A3A380DFD093D083D082F8E493701274BB
:1073C0000193700DA3A393F8740193F5828883E46D
:1073D00073740293B5F0067403936860E9A3A3A3E2
:1073E000A380D88B938A838982159353937FE47308
:1073F000EB7008E709F60870FA801B89828A83140B
:1074000010E70AF593E0A3F60870FA8009F593E413
:1074100093A3F60870F9ECFAA9F0EDFB2288F0EDE1
:1074200060CE1410E7F0CB700E88828C83F593E762
:1074300009F0A370FA80DF1410E72889828A83F5A7
:1074400093ECFAE0A3C8C582C8CCC583CCCBC59366
:10745000CBF0A3C8C582C8CCC583CCCBC593CB70B9
:10746000E280B589828A83F593ECFAE493A3C8C5D8
:1074700082C8CCC583CCCBC593CBF0A3C8C582C88A
:10748000CCC583CCCBC593CB70E1808CEB700C87E3
:10749000F009E608B5F019DFF6801589828A8314B1
:1074A00010E711F593E0F5F0A3E608B5F002DFF57B
:1074B0000200753DF593E493F5F0A3E608B5F07D81
:1074C000DFF48079CB701388828C838B9387F009EB
:1074D000E493A3B5F067DFF580631410E730898289
:1074E0008A83F593ECFAE0F5F0A3C8C582C8CCC551
:1074F00083CCCBC593CBE493A3C8C582C8CCC5834A
:10750000CCCBC593CBB5F035DFDCDEDA802F8982BA
:107510008A83F593ECFAE493F5F0A3C8C582C8CC4E
:10752000C583CCCBC593CBE493A3C8C582C8CCC5D7
:1075300083CCCBC593CBB5F004DFDBDED97FFFB5C1
:10754000F0020F2240027F01220200748C020074BC
:10755000C488F0EF60010E4E60EEED60EC1410E7B1
:10756000ECCB701288828C83F59387F009E0A3B589
:10757000F0CBDFF680C71410E72F89828A83F5935A
:10758000ECFAE0F5F0A3C8C582C8CCC583CCCBC566
:1075900093CBE0A3C8C582C8CCC583CCCBC593CB65
:1075A000B5F09ADFDDDEDB809489828A83F593EC87
:1075B000FAE493F5F0A3C8C582C8CCC583CCCBC58B
:1075C00093CBE0A3C8C582C8CCC583CCCBC593CB35
:1075D000B5F004DFDCDEDA0200753DEF60010E4E2F
:1075E0006027EB7009E76D602409DFF9801B898251
:1075F0008A831410E718F593E06D7008AB930BAA1B
:1076000083A98222A3DFF1DEEFE4F9FAFB22F593EE
:10761000E4936D7007E5932481FB80E3A3DFF1DE43
:10762000EF80E6EF4E6022EF60010EEDBB0007F742
:1076300009DFFCA9F022BB8000500E89828A838B6F
:10764000931593F0A3DFFCDEFA22EB701BE9D398CD
:10765000500EE92FF9E82FF819E718F6DFFA802520
:10766000E709F608DFFA801D89828A831410E70A89
:10767000F593E0A3F608DFFA800B89828A83E4930E
:10768000A3F608DFF9ECFAA9F0EDFB2288F08E836F
:10769000EF60010E4E60EE88F0ED60AE1410E7E58D
:1076A000CB700E88828C838B93E709F0A3DFFA807E
:1076B000D41410E766F593D3E998EA9CE5939B50C0
:1076C0005CE82FF8EC3583FCE43BFBE92FF582EA1C
:1076D0003583F583E43593F5930582D582090583D7
:1076E000D58302159315831582E0C8C582C8CCC521
:1076F00083CCCBC593CB0582D582090583D5830284
:10770000159315831582F0C8C582C8CCC583CCCB30
:10771000C593CBDFC4DEC202007687802A89828AC5
:1077200083ECFAE0A3C8C582C8CCC583CCCBC59393
:10773000CBF0A3C8C582C8CCC583CCCBC593CBDF67
:10774000E2DEE00200768789828A83F593ECFAE430
:1077500093A3C8C582C8CCC583CCCBC593CBF0A3BB
:10776000C8C582C8CCC583CCCBC593CBDFE1DEDFF7
:1077700002007687E6FC08E6FD08E6FE08E6FF2242
:10778000E0FCA3E0FDA3E0FEA3E0FF22E493FC7491
:107790000193FD740293FE740393FF22ECF608ED4F
:1077A000F608EEF608EFF622E6FB08E6FA08E6F938
:1077B00022E0FBA3E0FAA3E0F922F8E0FBA3A3E0B8
:1077C000F925F0F0E582158270021583E0FA38F0B1
:1077D00022EBF0A3EAF0A3E9F022E493FB74019317
:1077E000FA740293F922BB001CD093D0F0D0E0F8D9
:1077F000D0E0C9FBD0E0FAD0E0CBC8C0E0C0F0C018
:10780000930200783ABB80005022D093D0F0D0E0B1
:10781000F8D0E0C9F582D0E0CAF583D0E0CB14C837
:10782000C0E0C0F0C0938893020077D1D093D0839A
:10783000D082D0E0D0E0D0E0E473EBF608EAF608BE
:10784000E9F622E5082438F582E43428F5837593B7
:1078500000E005082290002835302F0490002838D9
:10786000E475F001120077BA020070422028E57F2B
:107870002ED2288018EF540F2490D43440D4FF30F7
:107880002C0BEF24BFB41A0050032461FFE50960FC
:10789000021509050CE50C7002050B302F11900044
:1078A0002835E475F001120077BAEF0200709302F8
:1078B000008A027403D22F8003E4C22FF5089000DF
:1078C0002835120077D1E4F509F50BF50CE50960D0
:1078D000087F201200788D80F4750AFFC229C22823
:1078E000C22AC22BC22DC22EC23012007855FF70A0
:1078F0000E302F067F001200789EAF0CAE0B22B424
:107900002563C2D5C22C12007855FF24D0B40A00DA
:10791000501A75F00A780930D50508B6FF0106C679
:10792000A426F620D5047002D22B80D824CFB41A16
:1079300000EF5004C2E5D22C02007ACBD22980C4D9
:10794000D22880BED22A80BAD2D580B8D22D80B2B9
:107950007F201200788D202A077401B5090040F0BD
:1079600012007843FF1200788D020078CDD230D219
:107970002E808F12007843FB12007843FA120078B1
:1079800043F94A4B700679A27A7B7B81202A3DE538
:107990000960397E00E9C0E02EF9EAC0E03400FA5F
:1079A00012007042F9D0E0FAD0E0C960060EEE6530
:1079B0000A70E2C2D5EBC0E0EAC0E0E9C0E0EE1236
:1079C000007B13D0E0F9D0E0FAD0E0FB1200704267
:1079D000FF6096EBC0E0EAC0E0E9C0E01200788DFD
:1079E000D0E02401F9D0E03400FAD0E0FBE50A044D
:1079F00060DAD50AD7020079697BFF7A7B790FD2EA
:107A00002A8089791080027908C22EC2308008D27B
:107A1000D5790A8004790AC2D5E50A047002F50A0C
:107A2000E4FAFDFEFF12007843FC7B0820291612C1
:107A3000007843FD7B1030280C12007843FE1200C2
:107A40007843FF7B20EC3382D592D55013C3E430CA
:107A500028069FFFE49EFEE42029039DFDE49CFC94
:107A6000E4CBF8C229EC700CCFCECDCCE824F8F8EA
:107A700070F38017C3EF33FFEE33FEED33FDEC33CD
:107A8000FCEB33FB994002FB0FD8E9EB302905F8FA
:107A9000D0E0C448B229C0E00AEC4D4E4F78207BBC
:107AA0000070C2EAB50A0040BCC0E012007B15D0ED
:107AB000F0D0E0202904C4C0E0C4B229C0F0120014
:107AC0007876D0F0D5F0EA020078CD1200738C7988
:107AD00073537A035879404C793C427A074F7A0FB6
:107AE000447A0F497956437A155579F94679F9451B
:107AF00079F9477BBF5079442D79482E796F2B79DE
:107B00004C23796D207BAB2A790248000079653FD0
:107B10003F3F00790AA2D5202B14302D09B910025D
:107B20000404B9080104A2D5202E02500104202A21
:107B30006D922AB509005036C0E07F20302B1A7FA5
:107B400030A22A722E722D501012007B6EC22AC2F1
:107B50002EC22DC2307F308010302D03E9C0E012DC
:107B600000788D302D03D0E0F9D0E0B509CA302D72
:107B7000197F30B9100D1200788D7F58302C077F97
:107B8000788003B908041200788D302A067F2D0210
:107B900000788D7F202030F77F2B202EF222922A32
:107BA00080CC286E756C6C2900D229120078433085
:107BB00029F7C229780930D50108F60200790212A6
:107BC0000078437F4960087F4310E7027F5814C064
:107BD000E0EF1200787E743A1200787ED0E0600DFB
:107BE000C0E0C412007876D0E012007876D22B750F
:107BF000090402007A03412F3E00412CA900412CC8
:107C0000AA00412CA700412CA800412CAB00412C1C
:107C1000A600422B000000422AFB0000412B02007C
:107C2000412F4900422E790000442E1D0000000023
:107C3000422E230001412E2219412E2101421355CB
:107C40000000421365000042136300004113590015
:107C5000421351000042135B000041176B004213B6
:107C60005D00004213570000421369000042136791
:107C7000000041135A00421353000042135F0000FA
:107C800041176C00421361000041176D00421775E7
:107C900000004217EA0000421B570000421817007C
:107CA00000421AC50000602917EE50305F302C509A
:107CB000305F312C50305F322C50305F332C5030DD
:107CC0005F342C50305F352C50305F362C50305F95
:107CD000372C006029181950315F302C50315F313A
:107CE0002C50315F322C50315F332C50315F342CAB
:107CF00050315F352C50315F362C50315F372C00BE
:107D00006029184250325F302C50325F312C503293
:107D10005F322C50325F332C50325F342C50325F44
:107D2000352C50325F362C50325F372C00602A18C9
:107D30006B50335F302C50335F312C50335F322C1B
:107D400050335F332C50335F342C50335F352C501D
:107D5000335F362C50335F372C00004129B6014188
:107D600029B7024129B8044129B9084129BA10416B
:107D700029BB204129BC404129BD804129BE014188
:107D800029BF024129C0044129C1084129C210412B
:107D900029C3204129C4404129C58041134F0041D6
:107DA0000F670041135000410F1E0041134E004168
:107DB0001008004623BF00123456789A4624250046
:107DC000000000000041241D004302D60102DB43F5
:107DD00000A30102DB4300940102DB4823B64153B8
:107DE000495858495341430E940108CE4C1B5E53E9
:107DF000696D74656B6B65746D6953412F600141EA
:107E0000202100421FF10000411FF3004420220006
:107E100000000046201B000000000000412A8900ED
:107E2000412A8A01412A8400422A820000442A7E93
:107E300000000003442A850000000041219B5A43B2
:107E4000202681607F43211400000042219C000015
:107E50004321A181608343219E81609341202900B9
:107E600044211700000000605420C08160A281609E
:107E7000AA0000008160B38160D28160D782AD74B6
:107E80008160D98160F9816100835ECD8161038168
:107E9000612F81613E8357DA81614100000000005B
:107EA0000000000000000081616E0000008354D0DB
:107EB000816173816192816198822F8C81619B4184
:107EC000278B004127900041278A004127890042E3
:107ED000278500004227B100004227870000442781
:107EE0008C000000005027A10000000000000000EE
:107EF000000000000000000050279100000000007A
:107F0000000000000000000000000000482C6D0090
:107F1000000000000000005265616420636F6E661F
:107F2000696775726174696F6E2064617461203A6B
:107F30002000526561642064656661756C7420631D
:107F40006F6E66696775726174696F6E20646174C3
:107F5000612E200A0D0031302D393832335F303137
:107F60005F3158580031323334006661696C6564A2
:107F700021202877726F6E6720636865636B737565
:107F80006D290A0D00496E76616C696420636F6E1D
:107F900066696775726174696F6E206461746121CE
:107FA0000A0D00706173730A0D00646174612073BF
:107FB000617665640A0D004661696C656420746FC2
:107FC0002070726F6772616D20436F6E66696772B1
:107FD0006174696F6E204461746121210A0D002073
:107FE00020446576696365204E616D652020202000
:107FF000202020202020203A20002563000A0D00A8
:1080000020204D4143204164647265737320202019
:1080100020202020202020203A20002530326278A5
:10802000200020204E6574776F726B205365747446
:10803000696E67732020202020203A2000253034EC
:1080400064780D0A00202020205365727665722F17
:10805000436C69656E74202020202020203A204344
:108060006C69656E740020202020536572766572FD
:108070002F436C69656E74202020202020203A2038
:1080800053657276657200202020204448435020BA
:108090002020202020202020202020202020203AC6
:1080A00020456E61626C65640020202020444843B6
:1080B0005020202020202020202020202020202090
:1080C000203A2044697361626C656400202020209E
:1080D0005544502020202020202020202020202017
:1080E000202020203A204F6E002020202055445090
:1080F0002020202020202020202020202020202080
:10810000203A204F666600202020202020202020BA
:10811000205443502020202020202020203A204F8F
:108120006E00202020202020202020202020202021
:10813000205443502020203A204F66660020202003
:108140002042726F616443617374202020202020DC
:1081500020202020203A204F6E0020202020427234
:108160006F61644361737420202020202020202030
:1081700020203A204F6666002020446576696365BA
:1081800020536572766572204950202020202020DF
:108190003A20002562752E00256275002000506F80
:1081A000727420203A2000256475282530346478C4
:1081B00029002020486F7374205365727665722001
:1081C000495020202020202020203A2000F000FECE
:1081D0007648402D7600002D00F100000000495047
:1081E00020203A202562752E2562752E2562752E77
:1081F0002562750A0D00300031003020003120006A
:108200007543204669726D7761726520504E20205B
:1082100020202020202020203A20002530326278A3
:108220002D00253032627800203A2025630A0D00A7
:1082300046504741204669726D7761726520504E05
:1082400020202020202020203A20004465627567ED
:1082500020526F7574696E657320202020202020C5
:108260002020203A200064697361626C65640A0D05
:1082700000656E61626C65640A0D005472616E7314
:108280006D6974204D6F64652020202020202020FF
:108290002020203A20005365727665720A0D004353
:1082A0006C69656E740A0D002A2A2A2A2A2A2A2A4B
:1082B0002A2A2A2A2A2A2A2A2A2A2A2A2A2A2A2A1E
:1082C0002A2A2A2A2A2A2A2A2A2A2A2A2A2A2A2A0E
:1082D0002A2A2A2A2A2A2A2A2A2A2A2A2A0A0D0065
:1082E00045746865726E6574204C696E6B205370BE
:1082F000656564203D206270730A0D004448435058
:108300002020202020696E69742020202020202039
:10831000202020203A2000706173730A0D002A2A61
:108320004552524F522A2A0A0D00444843502041D8
:10833000737369676E6564204950202020203A20BD
:10834000004448435020726573706F6E7365202D32
:108350002D2000206661696C210A0D00496E73743E
:1083600072756D656E742050617274204E756D6209
:10837000657220203A2025730A0D0031305F3938AC
:108380003233004669726D77617265204C61737497
:1083900020526576697365642020203A2025732079
:1083A00025730A0D004D6172203133203230323690
:1083B0000031303A32313A34330045746865726EB8
:1083C0006574204C696272617279205665722E2044
:1083D00020203A2025730A0D00332E312E32303002
:1083E000002A2A2A2A2A2A2A2A2A2A2A2A2A2A2A17
:1083F0002A2A2A2A2A2A2A2A2A2A2A2A2A2A2A2ADD
:108400002A2A2A2A2A2A2A2A2A2A2A2A2A2A2A2ACC
:108410002A2A2A2A2A2A2A2A2A2A0A0D00554152B9
:10842000542D30202020696E6974202020202020C7
:1084300020202020203A20706173732020200062C9
:10844000617564203A202530326278200A0D00558B
:108450004152542D31202020696E69742020202043
:10846000202020202020203A20706173730A0D0004
:10847000313230304032354D487A0032343030407D
:1084800032354D487A00343830304032354D487AF4
:1084900000393630304032354D487A00313932308B
:1084A000304032354D487A0032383830304032353D
:1084B0004D487A0033383430304032354D487A00F8
:1084C00035373630304032354D487A00373638301F
:1084D000304032354D487A00393437353040323506
:1084E0004D487A003131353230304032354D487A9E
:1084F00000313230304035304D487A00323430303F
:108500004035304D487A00343830304035304D48B1
:108510007A00393630304035304D487A00313932C2
:1085200030304035304D487A0032383830304035C0
:10853000304D487A0033383430304035304D487A49
:108540000035373630304035304D487A00373638D0
:1085500030304035304D487A003934373530403589
:10856000304D487A003131353230304035304D4869
:108570007A0031323030403130304D487A00323478
:108580003030403130304D487A003438303040316E
:1085900030304D487A0039363030403130304D4837
:1085A0007A003139323030403130304D487A003243
:1085B00038383030403130304D487A00333834303C
:1085C00030403130304D487A003537363030403128
:1085D00030304D487A003736383030403130304D09
:1085E000487A003934373530403130304D487A00E0
:1085F000313135323030403130304D487A00202032
:10860000313230304032354D487A000A0D002D2D80
:10861000527848656164202564752C205278546135
:10862000696C202564752C205278436E7420256473
:10863000752D2D0A0D000A0D2530346478203A007E
:10864000202530326278002D2D52784865616420F3
:1086500025303464782C2052785461696C202530A0
:108660003464782C205278436E74202564752D2D47
:1086700020000A0D2A2A2A2A2A2A2A2A2A2A2A2ACB
:108680002A2A2A2A2A2A2A2A2A2A2A2A2A2A2A2A4A
:108690002A2A2A2A2A2A2A2A2A2A2A2A2A2A2A2A3A
:1086A0002A2A2A2A2A2A2A2A2A2A2A2A2A2A2A2A2A
:1086B0002A2A2A2A2A2A2A2A2A2A2A2A0A0D005556
:1086C000445020686F737420636C69656E74207009
:1086D0006F7274202020203A20002A2A4552524FDF
:1086E000522120554E41424C4520544F2043524583
:1086F00041544520534F434B45542A2A0A0D002527
:1087000064750A0D00554450206461746120007046
:108710006F727420202020202020202020203A204A
:108720002A2A42494E44494E47204552524F52212F
:108730002A2A0A0D0073657276657220706F727452
:10874000202020203A202564750A0D00736572767A
:10875000657220706F7274202020203A202A2042F7
:10876000494E44494E47204552524F5221202A0A31
:108770000D00636C69656E7420706F727420202028
:108780002020203A202564750A0D004E657720557B
:10879000445020636F6E6E656374696F6E203A207B
:1087A00069643D2562752C2072656D6F7465506F2C
:1087B00072743D2564752C20736F636B65743D2561
:1087C00062750A0D0054435049505F556470436C04
:1087D0006F73652869643D2562752C20736F636B28
:1087E00065743D256275290A0D00696E76616C69B4
:1087F00064206F702D636F6465203A2025303262EB
:10880000780A0D0075EBAA75EB55759D02787FE42B
:10881000F6D8FD900000007F007E807D01E4F0A38B
:10882000DFFCDEFADDF8750D66750ED875818702FE
:1088300000885D0201D610E493A3F85407240CC805
:10884000C333C4540F4420C8834004F45680014607
:10885000F6DFE4800C010204081020408090007BC9
:10886000F6E47E019360CCA3FF543F30E509541F2A
:10887000FEE493A360010ECF54E0B4E026E493FB42
:10888000A3E493FAA3E493F9A3E493C083C0821210
:10889000007093D082D083A309E970010ADFEADE79
:1088A000E880BE54C025E0602B408CE493A3FAE43A
:1088B00093A3F8E493A3C8C582C8CAC583CA7593B5
:1088C00000F0759300A3C8C582C8CAC583CADFE398
:1088D000DEE1808DE493A3F8E493A34003F68001E6
:1088E000F208DFF40200886155445020756E696318
:1088F00061737420706F727420202020202020204B
:108900003A2000202A2A42494E44494E47204552E7
:10891000524F52212A2A0A0D002564750A0D002A99
:108920002042494E44494E47204552524F52212041
:108930002A0A0D006256616C6964526571203D20FF
:108940005452554520262620006644656275674DC1
:108950006F6465203D204F4E20262620004C656E1A
:10896000677468203D20476F6F640A0D004C656E88
:10897000677468203D204261640A0D005544502010
:1089800062726F61646361737420706F727420200F
:10899000202020203A20002A2A42494E44494E47AE
:1089A000204552524F52212A2A0A0D002564750A89
:1089B0000D002A2042494E44494E47204552524F0D
:1089C0005221202A0A0D00204D4143204241440AF1
:1089D0000D00202530326278002025303262780A7E
:1089E0000D00204D414320474F4F44200000000020
:1089F0000000000000000000000000000000000077
:108A00000000EFB40A08740D12008A0E740A309840
:108A100011A899B8130CC2983098FDA899C298B8BB
:108A200011F63099FDC299F59922556E6465666913
:108A30006E656420534652204164647265737320EE
:108A4000210A000D436F6E6E656374696F6E206955
:108A50006E6163746976650A0D0010310D12006055
:108A600047BF0D027F0A02008A0290002F68E0FFD4
:108A700022E4FFFE12007042600C0FEF70010E093D
:108A8000E970F10A80EE2200000000000000000002
:108A9000000000000000000000000090002DC6EF64
:108AA000F0900002D9E0FEA3E0FFAA06A9077B012F
:108AB00090002DC7EBF0A3EAF0A3E9F090000F6758
:108AC000E0FFEF60387B017A0279F1900002D6EB8B
:108AD000F0A3EAF0A3E9F07B017A0279F1900000BB
:108AE000A3EBF0A3EAF0A3E9F07B017A0279F1901D
:108AF000000094EBF0A3EAF0A3E9F0807790000F78
:108B00001EE0FFEF60387B017A0279E9900002D61F
:108B1000EBF0A3EAF0A3E9F07B017A0279E9900097
:108B200000A3EBF0A3EAF0A3E9F07B017A0279E974
:108B300090000094EBF0A3EAF0A3E9F080367B010B
:108B40007A0279DB900002D6EBF0A3EAF0A3E9F019
:108B50007B017A0279DB900000A3EBF0A3EAF0A39B
:108B6000E9F07B017A0279DB90000094EBF0A3EA54
:108B7000F0A3E9F090002DC6E0FFEF64026003016E
:108B800092159000134FE0FF7E0090000F1EE0FD55
:108B90007C00ED2FFFEC3EFE74032FF974033EFAC8
:108BA0007B0190000099EBF0A3EAF0A3E9F0788153
:108BB00006E6FFEF7013788006E6FFEF700B787F14
:108BC00006E6FFEF7003787E06788676000876006A
:108BD00090002DC7E0FBA3E0FAA3E0F9E92419F91E
:108BE000EA3400FA12007042FFEF6407601E900042
:108BF0002DC7E0FBA3E0FAA3E0F9E92419F9EA3470
:108C000000FA12007042FFEF6405707C90002DC7DF
:108C1000E0FBA3E0FAA3E0F9E9241AF9EA3400FA48
:108C200074011200707790002DC7E0FBA3E0FAA357
:108C3000E0F9E9241AF9EA3400FA12007042FFEF71
:108C40006478600301C7AB90002DC7E0FBA3E0FA96
:108C5000A3E0F9E92419F9EA3400FAE41200709368
:108C6000787476201200F6CA900002D6E0FBA3E0EA
:108C7000FAA3E0F9E92421F9EA3400FA74141200A5
:108C8000709301C2A701C7AB90002DC7E0FBA3E022
:108C9000FAA3E0F9E92419F9EA3400FA1200704263
:108CA000FFEF700301C7AB90002DC7E0FBA3E0FA14
:108CB000A3E0F9E92410F9EA3400FA120070E5FFA4
:108CC000AEF0EF4E7003018ECD90002DC7E0FBA3F8
:108CD000E0FAA3E0F9E9241AF9EA3400FA74FF1281
:108CE000007058FFEF600301C7AB90002DC7E0FB99
:108CF000A3E0FAA3E0F9E9241BF9EA3400FA120030
:108D00007042FFEF6408605990002DC7E0FBA3E0BC
:108D1000FAA3E0F9E92419F9EA3400FA12007042E2
:108D2000FFEF6402601E90002DC7E0FBA3E0FAA3F2
:108D3000E0F9E92419F9EA3400FA12007042FFEF71
:108D40006401705B90002DC7E0FBA3E0FAA3E0F99B
:108D5000E9241BF9EA3400FA12007042FFEFB40371
:108D60003E90002DC7E0FBA3E0FAA3E0F9E9241947
:108D7000F9EA3400FAE412007093787476801200F5
:108D8000F6CA900002D6E0FBA3E0FAA3E0F9E924DA
:108D900021F9EA3400FA74141200709301C2A7900A
:108DA000002DC7E0FBA3E0FAA3E0F9E9241BF9EAF0
:108DB0003400FA12007042FFEFD3940440047F04A1
:108DC000801990002DC7E0FBA3E0FAA3E0F9E924A5
:108DD0001BF9EA3400FA12007042FF7403A8070876
:108DE0008002C333D8FCFF90002DC7E0FBA3E0FA5C
:108DF000A3E0F9E9241AF9EA3400FAEF12007093BB
:108E000090002DC7E0FBA3E0FAA3E0F9E9241BF9E9
:108E1000EA3400FA74011200707790002DC7E0FB6D
:108E2000A3E0FAA3E0F9E92419F9EA3400FA120000
:108E30007042FFEF540FFFEF1200738CAB47018EAF
:108E400055028E7103B9FB04B9FB06B9FB0800009B
:108E5000C7AB01AB47900002D6E0FBA3E0FAA3E06A
:108E6000F9E92421F9EA3400FAE41200709301AB25
:108E70006178867600087600788476000876007837
:108E80007476041200F6CA900002D9E0FEA3E0FF57
:108E9000AA06A9077B0190002DC7EBF0A3EAF0A377
:108EA000E9F07884E6FE08E6FF90002DC7E0FBA31A
:108EB000E0FAA3E0F9E92410F9EA3400FAEE8FF0C1
:108EC0001200713501BF7A01B9FB01C7AB90002DCB
:108ED000C7E0FBA3E0FAA3E0F9E92419F9EA3400BA
:108EE000FA12007042FFEF540FFFEF6403600301BA
:108EF000C7AB90002DC7E0FBA3E0FAA3E0F9E9249B
:108F00001EF9EA3400FA12007042FFEF700301917B
:108F1000A690002DC7E0FBA3E0FAA3E0F9E9242026
:108F2000F9EA3400FAE475F00112007109AFF0FEBD
:108F3000EF64E07003EE6401600301C7AB90002DA5
:108F4000C7E0FBA3E0FAA3E0F9E9241FF9EA340043
:108F5000FA12007042FFEFC3940440030191639042
:108F6000002DC7E0FBA3E0FAA3E0F9E9241FF9EA2A
:108F70003400FA74011200707790002DC7E0FBA353
:108F8000E0FAA3E0F9E92420F9EA3400FAE475F004
:108F90000012007135900002D6E0FBA3E0FAA3E0D6
:108FA000F9E92421F9EA3400FA7410120070937878
:108FB000867600087629900002D6E0FBA3E0FAA3AB
:108FC000E0F9E92420F9EA3400FA745012007093B1
:108FD00090002DC7E0FBA3E0FAA3E0F9E9240CF927
:108FE000EA3400FA12007042FF900002D6E0FBA3C0
:108FF000E0FAA3E0F9E92418F9EA3400FAEF1200E4
:10900000709390002DC7E0FBA3E0FAA3E0F9E924F8
:109010000DF9EA3400FA12007042FF900002D6E027
:10902000FBA3E0FAA3E0F9E92419F9EA3400FAEF26
:109030001200709390002DC7E0FBA3E0FAA3E0F9C3
:10904000E9240EF9EA3400FA12007042FF9000029F
:10905000D6E0FBA3E0FAA3E0F9E9241AF9EA340028
:10906000FAEF1200709390002DC7E0FBA3E0FAA383
:10907000E0F9E9240FF9EA3400FA12007042FFC364
:10908000EF9401FF900002D6E0FBA3E0FAA3E0F921
:10909000E9241BF9EA3400FAEF12007093FFEF6441
:1090A000FF600301C39090002DC7E0FBA3E0FAA38B
:1090B000E0F9E9240EF9EA3400FA12007042FFC325
:1090C000EF9401FF900002D6E0FBA3E0FAA3E0F9E1
:1090D000E9241AF9EA3400FAEF12007093FFEF6402
:1090E000FF600301C39090002DC7E0FBA3E0FAA34B
:1090F000E0F9E9240DF9EA3400FA12007042FFC3E6
:10910000EF9401FF900002D6E0FBA3E0FAA3E0F9A0
:10911000E92419F9EA3400FAEF12007093FFEF64C2
:10912000FF600301C39090002DC7E0FBA3E0FAA30A
:10913000E0F9E9240CF9EA3400FA12007042FFC3A6
:10914000EF9401FF900002D6E0FBA3E0FAA3E0F960
:10915000E92418F9EA3400FAEF1200709301C39081
:1091600001C7AB90002DC7E0FBA3E0FAA3E0F9E94B
:109170002420F9EA3400FAE475F000120071359009
:10918000002DC7E0FBA3E0FAA3E0F9E9241FF9EA08
:109190003400FAE412007093787476081200F6CA6C
:1091A00001BD7401C7AB90002DC7E0FBA3E0FAA39B
:1091B000E0F9E92420F9EA3400FAE475F00112003C
:1091C0007109AFF0FEEF64807003EE640760030185
:1091D000C7AB90002DC7E0FBA3E0FAA3E0F9E924B8
:1091E00020F9EA3400FAE475F000120071359000BD
:1091F0002DC7E0FBA3E0FAA3E0F9E9241FF9EA3464
:1092000000FAE412007093787476081200F6CA012E
:10921000BD7401C7AB90002DC6E0FFEFB4033390DF
:10922000000097E0FEA3E0FF8F828E83759300E538
:10923000822404F582E5833400F583759300E0FE13
:10924000A3E0FFEF4E700301C7AB019C2780030131
:10925000C7AB90002DC6E0FFEF640460030192E00D
:1092600090002DC7E0FBA3E0FAA3E0F9E92419F987
:10927000EA3400FA12007042FFEF540FFFEF1200C1
:10928000738C928902000092A5900002D6E0FBA3A5
:10929000E0FAA3E0F9E92421F9EA3400FAE4120043
:1092A000709301AB61900008C7E0FFEF20E203017B
:1092B000BD747884E6FE08E6FF90002DC7E0FBA3AE
:1092C000E0FAA3E0F9E92410F9EA3400FAEE8FF0AD
:1092D0001200713501BF7A01C7AB01BD7401C7AB84
:1092E0009000134FE0FF7E0090000F1EE0FD7C0019
:1092F000ED2FFFEC3EFE74032FF974033EFA7B0161
:1093000090000099EBF0A3EAF0A3E9F07886E6FE7E
:1093100008E6FF9000134FE0FD7C0090000F1EE078
:10932000FB7A00EB2DFDEA3CFCC3EF9DFFEE9CFEBB
:109330007886A60608A607900002D6E0FBA3E0FA0E
:10934000A3E0F912007042FFEF6445600301C7AB70
:10935000900002D6E0FBA3E0FAA3E0F9E92402F9C9
:10936000EA3400FA12007042FFEFFD7C007886E6D6
:10937000FE08E6FFEEFF7E00EF6D7002EE6C6035DA
:10938000900002D6E0FBA3E0FAA3E0F9E92402F999
:10939000EA3400FA12007042FF7E00EF7F00FE7890
:1093A00086E6FC08E6FD7C00EC4EFEED4FFF78867D
:1093B000A60608A607900002D6E0FBA3E0FAA3E009
:1093C000F9E92403F9EA3400FA12007042FF7E0042
:1093D0007886E6FC08E6FD7C00ED6F7002EC6E60BE
:1093E00031900002D6E0FBA3E0FAA3E0F9E9240300
:1093F000F9EA3400FA12007042FF7E007886E6FC3B
:1094000008E6FD7D00EC4EFEED4FFF7886A60608CF
:10941000A607900002D6E0FBA3E0FAA3E0F9E92456
:1094200006F9EA3400FA12007042FFEF543FFFEFF2
:10943000600301C7AB900002D6E0FBA3E0FAA3E013
:10944000F9E92407F9EA3400FA12007042FFEF60EC
:109450000301C7AB90000F1EE0FFEF7003019540C2
:109460007853E6FE08E6FFEF4E700301954090004A
:1094700002D6E0FBA3E0FAA3E0F9E92410F9EA340C
:1094800000FA120070E5FFAEF0C3EE94E040030175
:109490009540900002D6E0FBA3E0FAA3E0F9E924AE
:1094A00010F9EA3400FA120070E5FFAEF07853E6E6
:1094B000FC08E6FDEF6D7002EE6C600301C7AB9037
:1094C0000002D6E0FBA3E0FAA3E0F9E92412F9EAEE
:1094D0003400FA120070E5FFAEF07855E6FC08E6BD
:1094E000FDEF6D7002EE6C6057900002D6E0FBA3BA
:1094F000E0FAA3E0F9E92412F9EA3400FA12007064
:10950000E5FFAEF07E00EF64FF4E600301C7AB9055
:109510000002D6E0FBA3E0FAA3E0F9E92412F9EA9D
:109520003400FA120070E5FFAEF07F007855E6FCDB
:1095300008E6FD7D00EF6D7002EE6C600301C7ABC5
:10954000900002D6E0FBA3E0FAA3E0F9E92409F9D0
:10955000EA3400FA12007042FFEF64067003019EC5
:109560001A900002D6E0FBA3E0FAA3E0F9E924098F
:10957000F9EA3400FA12007042FFEF64117003013F
:109580009716900002D6E0FBA3E0FAA3E0F9E924E5
:1095900009F9EA3400FA12007042FFEF6401600337
:1095A00001C7AB90000094E0FBA3E0FAA3E0F9E967
:1095B0002414F9EA3400FA12007042FFEF640860E4
:1095C0004790000094E0FBA3E0FAA3E0F9E924143B
:1095D000F9EA3400FA12007042FFEF600301C7ABF2
:1095E00090000F1BE0FBA3E0FAA3E0F9EA494B70FF
:1095F0000301C7AB90000F1BE0FBA3E0FAA3E0F967
:10960000120073E301C7AB2290000094E0FBA3E0DB
:10961000FAA3E0F9E92414F9EA3400FAE41200703C
:1096200093900002D6E0FBA3E0FAA3E0F9E924104E
:10963000F9EA3400FA120070E5FFAEF07872A6067F
:1096400008A607900002D6E0FBA3E0FAA3E0F9E940
:10965000240CF9EA3400FA120070E5FFAEF0900035
:1096600002D6E0FBA3E0FAA3E0F9E92410F9EA341A
:1096700000FAEE8FF0120071357872E6FE08E6FF10
:10968000900002D6E0FBA3E0FAA3E0F9E9240CF98C
:10969000EA3400FAEE8FF012007135900002D6E045
:1096A000FBA3E0FAA3E0F9E92412F9EA3400FA1284
:1096B0000070E5FFAEF07872A60608A607900002DB
:1096C000D6E0FBA3E0FAA3E0F9E9240EF9EA3400BE
:1096D000FA120070E5FFAEF0900002D6E0FBA3E0C6
:1096E000FAA3E0F9E92412F9EA3400FAEE8FF01255
:1096F0000071357872E6FE08E6FF900002D6E0FBC6
:10970000A3E0FAA3E0F9E9240EF9EA3400FAEE8FB7
:10971000F01200713522787476007E007F0190008F
:109720000097EEF0A3EFF07E007F9190000097E0AD
:10973000FCA3E0FDC3ED9FEC9E4003019A2E900038
:109740000097E0FEA3E0FF8F828E83759300E58291
:109750002404F582E5833400F583759300E0FEA3CD
:10976000E0FFEF4E7003019A1B900000A3E0FBA303
:10977000E0FAA3E0F9E92416F9EA3400FA120070DD
:10978000E5FFAEF090000097E0FCA3E0FD8D828C39
:1097900083759300E5822404F582E5833400F58324
:1097A000759300E0FCA3E0FDEF6D7002EE6C6003CA
:1097B000019A1B90000097E0FEA3E0FF8F828E834A
:1097C000759300E5822406F582E5833400F5837500
:1097D0009300E0FEA3E0FFEF4E604A900000A3E09C
:1097E000FBA3E0FAA3E0F9E92414F9EA3400FA1241
:1097F0000070E5FFAEF090000097E0FCA3E0FD8D67
:10980000828C83759300E5822406F582E58334001B
:10981000F583759300E0FCA3E0FDEF6D7002EE6C44
:109820006003019A1B90000097E0FEA3E0FF8F8287
:109830008E83759300E0FEA3E0FFEF4E701E900054
:109840000097E0FEA3E0FF8F828E83759300A3A3B1
:10985000E0FEA3E0FFEF4E70030199129000009725
:10986000E0FEA3E0FF8F828E83759300E0FEA3E00D
:10987000FFEFB4FF25EEB4FF2190000097E0FEA3B8
:10988000E0FF8F828E83759300A3A3E0FEA3E0FF29
:10989000EF64FF7003EE64FF6078900002D6E0FB97
:1098A000A3E0FAA3E0F9E9240CF9EA3400FA120083
:1098B00070E5FFAEF090000097E0FCA3E0FD8D8224
:1098C0008C83759300E0FCA3E0FDEF6D7002EE6CFD
:1098D0006003019A1B900002D6E0FBA3E0FAA3E02C
:1098E000F9E9240EF9EA3400FA120070E5FFAEF04F
:1098F00090000097E0FCA3E0FD8D828C83759300BF
:10990000A3A3E0FCA3E0FDEF6D7002EE6C60030129
:109910009A1B90000097E0FEA3E0FF8F828E837574
:109920009300E5822406F582E5833400F583759380
:1099300000E0FEA3E0FFEF4E7042900000A3E0FBCA
:10994000A3E0FAA3E0F9E92414F9EA3400FA1200DA
:1099500070E5FFAEF090000097E0FCA3E0FD8D8283
:109960008C83759300E5822406F582E5833400F547
:1099700083759300EEF0A3EFF0019BD99000009760
:10998000E0FEA3E0FF8F828E83759300E0FEA3E0EC
:10999000FFEF4E6003019BD990000097E0FEA3E02B
:1099A000FF8F828E83759300A3A3E0FEA3E0FFEFF9
:1099B0004E6003019BD9900002D6E0FBA3E0FAA31E
:1099C000E0F9E9240CF9EA3400FA120070E5FFAE80
:1099D000F090000097E0FCA3E0FD8D828C837593EE
:1099E00000EEF0A3EFF0900002D6E0FBA3E0FAA3B4
:1099F000E0F9E9240EF9EA3400FA120070E5FFAE4E
:109A0000F090000097E0FCA3E0FD8D828C837593BD
:109A100000A3A3EEF0A3EFF0019BD990000098E023
:109A20002409F090000097E03400F0019727788334
:109A300076007883E6FFEFC3940C400301C7AB9038
:109A40000000A3E0FBA3E0FAA3E0F9E92416F9EA99
:109A50003400FA120070E5FFAEF07883E6FDED25E4
:109A6000E02459F8E6FC08E6FDEF6D7002EE6C604C
:109A70000878830680BC01C7AB788376007883E6DC
:109A8000FFEFC394104003019BCD7883E6FFEF7591
:109A9000F009A42405F582E43400F583759300E011
:109AA000FEA3E0FFEF4E6003019BC7900000A3E020
:109AB000FBA3E0FAA3E0F9E92416F9EA3400FA126C
:109AC0000070E5FFAEF07883E6FDED75F009A424A3
:109AD00005F582E43400F583759300EEF0A3EFF012
:109AE000900000A3E0FBA3E0FAA3E0F9E92414F955
:109AF000EA3400FA120070E5FFAEF07883E6FDED7F
:109B000075F009A42407F582E43400F58375930009
:109B1000EEF0A3EFF0900002D6E0FBA3E0FAA3E0A2
:109B2000F9E9240CF9EA3400FA120070E5FFAEF00E
:109B30007883E6FDED75F009A42401F582E4340094
:109B4000F583759300EEF0A3EFF0900002D6E0FBF2
:109B5000A3E0FAA3E0F9E9240EF9EA3400FA1200CE
:109B600070E5FFAEF07883E6FDED75F009A42403FF
:109B7000F582E43400F583759300EEF0A3EFF078FE
:109B800083E6FFEF75F009A42409F582E43400F5BB
:109B9000837593007410F07883E6FFEF75F009A4E5
:109BA0002401F582E43400F583759300AF82AE831F
:109BB00090000097EEF0A3EFF07874E6FFEF4440DA
:109BC000FF7874A6078006788306019A7D7883E67D
:109BD000FFEF6410700301C7AB788774E426F618B2
:109BE00074FF36F69000134FE0FF7E0090000F1ECA
:109BF000E0FD7C00ED2FFFEC3EFE74F72FF97402C0
:109C00003EFA7B0190000099EBF0A3EAF0A3E9F0A3
:109C10007874E6FFEF4402FF7874A6077884760034
:109C2000087600120145207884E6FE08E6FFEF4E34
:109C3000700301C7AB7884E6FE08E6FFEF241CFF43
:109C4000EE3400FE7886A60608A6077886E6FE08AB
:109C5000E6FFEEFF7E00900002D6E0FBA3E0FAA351
:109C6000E0F9E92402F9EA3400FAEF12007093787F
:109C700086E6FE08E6FFEF54FFFF900002D6E0FB09
:109C8000A3E0FAA3E0F9E92403F9EA3400FAEF12B9
:109C9000007093900002D6E0FBA3E0FAA3E0F9E99C
:109CA0002409F9EA3400FA7411120070937884E6FA
:109CB000FE08E6FFEF2408FFEE3400FE900000A34C
:109CC000E0FBA3E0FAA3E0F9E92418F9EA3400FA8A
:109CD000EE8FF012007135900000A3E0FBA3E0FAD4
:109CE000A3E0F9E9241AF9EA3400FAE475F0001265
:109CF00000713590000097E0FEA3E0FF8F828E8315
:109D0000759300E5822404F582E5833400F58375BC
:109D10009300E0FEA3E0FF900002D6E0FBA3E0FA90
:109D2000A3E0F9E92414F9EA3400FAEE8FF0120006
:109D3000713590000097E0FEA3E0FF8F828E83755F
:109D40009300E5822406F582E5833400F58375935C
:109D500000E0FEA3E0FF900002D6E0FBA3E0FAA340
:109D6000E0F9E92416F9EA3400FAEE8FF0120071F6
:109D7000357853E6FE08E6FF900002D6E0FBA3E04C
:109D8000FAA3E0F9E9240CF9EA3400FAEE8FF012B4
:109D90000071357855E6FE08E6FF900002D6E0FB3C
:109DA000A3E0FAA3E0F9E9240EF9EA3400FAEE8F11
:109DB000F01200713590000097E0FEA3E0FF8F8263
:109DC0008E83759300E0FEA3E0FF900002D6E0FBD7
:109DD000A3E0FAA3E0F9E92410F9EA3400FAEE8FDF
:109DE000F01200713590000097E0FEA3E0FF8F8233
:109DF0008E83759300A3A3E0FEA3E0FF900002D63C
:109E0000E0FBA3E0FAA3E0F9E92412F9EA3400FA4E
:109E1000EE8FF01200713501C6A17B017A0079A6A0
:109E200090002DC7EBF0A3EAF0A3E9F07B017A02E2
:109E300079D6C003C002C00190002DC7E0FBA3E0AB
:109E4000FAA3E0F9C3D082D083D0E0E99582EA9505
:109E5000834003019FCB90002DC7E0FBA3E0FAA352
:109E6000E0F9E92419F9EA3400FA12007042FFEF30
:109E70007003019FBC90002DC7E0FBA3E0FAA3E0B4
:109E8000F9E92404F9EA3400FA120070E5FFAEF0B3
:109E9000900002D6E0FBA3E0FAA3E0F9E92416F96A
:109EA000EA3400FA120070E5FDACF0ED6F7002ECE0
:109EB0006E6003019FBC90002DC7E0FBA3E0FAA3F6
:109EC000E0F9E92406F9EA3400FA120070E5FFAE81
:109ED000F0900002D6E0FBA3E0FAA3E0F9E9241435
:109EE000F9EA3400FA120070E5FDACF0ED6F700293
:109EF000EC6E6003019FBC900002D6E0FBA3E0FA89
:109F0000A3E0F9E9240CF9EA3400FA120070E5FF45
:109F1000AEF090002DC7E0FBA3E0FAA3E0F9120039
:109F200070E5FDACF0EF6D7002EE6C6003019FBC5C
:109F300090002DC7E0FBA3E0FAA3E0F9E92402F9C1
:109F4000EA3400FA120070E5FFAEF0900002D6E0AD
:109F5000FBA3E0FAA3E0F9E9240EF9EA3400FA12CF
:109F60000070E5FDACF0ED6F7002EC6E704E90008D
:109F70002DC7E0FBA3E0FAA3E0F9E92419F9EA34DC
:109F800000FA12007042FFEF6407600301AC2790F3
:109F90000002D6E0FBA3E0FAA3E0F9E92421F9EA04
:109FA0003400FA12007042FFEF543FFFEF6402608A
:109FB0000301AC2701A55E800301AC2790002DC8EA
:109FC000E475F023120070B9019E2C900002D6E0D7
:109FD000FBA3E0FAA3E0F9E92421F9EA3400FA123C
:109FE000007042FFEF543FFFEF6402705690000292
:109FF000D6E0FBA3E0FAA3E0F9E92416F9EA34007D
:10A00000FA120070E5FFAEF07872A60608A607788F
:10A010008376007883E6FFEFC3940C50267883E6BE
:10A02000FFEF25E0243BF8E6FE08E6FF7872E6FC49
:10A0300008E6FDED6F7002EC6E700301A4337883C7
:10A040000680D0900002D6E0FBA3E0FAA3E0F9E995
:10A050002421F9EA3400FA12007042FFEF30E203E3
:10A0600001C7AB900002D6E0FBA3E0FAA3E0F9E958
:10A070002421F9EA3400FA74141200709378867679
:10A0800000087628900002D6E0FBA3E0FAA3E0F9EE
:10A09000E92420F9EA3400FA745012007093900019
:10A0A00002D6E0FBA3E0FAA3E0F9E9241BF9EA34C5
:10A0B00000FA12007042FF7883A607900002D6E0F3
:10A0C000FBA3E0FAA3E0F9E9241FF9EA3400FA124D
:10A0D000007042FF900002D6E0FBA3E0FAA3E0F993
:10A0E000E9241BF9EA3400FAEF120070937883E652
:10A0F000FF900002D6E0FBA3E0FAA3E0F9E9241FF9
:10A10000F9EA3400FAEF12007093900002D6E0FBF7
:10A11000A3E0FAA3E0F9E9241AF9EA3400FA1200FC
:10A120007042FF7883A607900002D6E0FBA3E0FA16
:10A13000A3E0F9E9241EF9EA3400FA12007042FFA4
:10A14000900002D6E0FBA3E0FAA3E0F9E9241AF9B3
:10A15000EA3400FAEF120070937883E6FF90000271
:10A16000D6E0FBA3E0FAA3E0F9E9241EF9EA340003
:10A17000FAEF12007093900002D6E0FBA3E0FAA37E
:10A18000E0F9E92419F9EA3400FA12007042FF7884
:10A1900083A607900002D6E0FBA3E0FAA3E0F9E96A
:10A1A000241DF9EA3400FA12007042FF900002D632
:10A1B000E0FBA3E0FAA3E0F9E92419F9EA3400FA94
:10A1C000EF120070937883E6FF900002D6E0FBA3C5
:10A1D000E0FAA3E0F9E9241DF9EA3400FAEF1200ED
:10A1E0007093900002D6E0FBA3E0FAA3E0F9E92423
:10A1F00018F9EA3400FA12007042FF7883A607903B
:10A200000002D6E0FBA3E0FAA3E0F9E9241CF9EA96
:10A210003400FA12007042FF900002D6E0FBA3E087
:10A22000FAA3E0F9E92418F9EA3400FAEF12007011
:10A23000937883E6FF900002D6E0FBA3E0FAA3E068
:10A24000F9E9241CF9EA3400FAEF12007093900047
:10A2500002D6E0FBA3E0FAA3E0F9E9241FF9EA340F
:10A2600000FA740112007077FFEF7056900002D66A
:10A27000E0FBA3E0FAA3E0F9E9241EF9EA3400FACE
:10A28000740112007077FFEF7038900002D6E0FB87
:10A29000A3E0FAA3E0F9E9241DF9EA3400FA740115
:10A2A00012007077FFEF701A900002D6E0FBA3E077
:10A2B000FAA3E0F9E9241CF9EA3400FA7401120067
:10A2C0007077900002D6E0FBA3E0FAA3E0F9E9245E
:10A2D00014F9EA3400FA120070E5FFAEF07872A6C5
:10A2E0000608A607900002D6E0FBA3E0FAA3E0F977
:10A2F000E92416F9EA3400FA120070E5FFAEF09096
:10A300000002D6E0FBA3E0FAA3E0F9E92414F9EA9D
:10A310003400FAEE8FF0120071357872E6FE08E62E
:10A32000FF900002D6E0FBA3E0FAA3E0F9E92416CF
:10A33000F9EA3400FAEE8FF012007135900002D67F
:10A34000E0FBA3E0FAA3E0F9E92410F9EA3400FA0B
:10A35000120070E5FFAEF07872A60608A60790001E
:10A3600002D6E0FBA3E0FAA3E0F9E9240CF9EA3411
:10A3700000FA120070E5FFAEF0900002D6E0FBA3F9
:10A38000E0FAA3E0F9E92410F9EA3400FAEE8FF0DC
:10A39000120071357872E6FE08E6FF900002D6E002
:10A3A000FBA3E0FAA3E0F9E9240CF9EA3400FAEEA1
:10A3B0008FF012007135900002D6E0FBA3E0FAA303
:10A3C000E0F9E92412F9EA3400FA120070E5FFAE70
:10A3D000F07872A60608A607900002D6E0FBA3E07C
:10A3E000FAA3E0F9E9240EF9EA3400FA120070E564
:10A3F000FFAEF0900002D6E0FBA3E0FAA3E0F9E99B
:10A400002412F9EA3400FAEE8FF0120071357872F6
:10A41000E6FE08E6FF900002D6E0FBA3E0FAA3E028
:10A42000F9E9240EF9EA3400FAEE8FF012007135E2
:10A4300001C60B7B007AFF79FF90002DC7EBF0A3DC
:10A44000EAF0A3E9F0788376007883E6FFEFC3941F
:10A4500010400301A5277883E6FF75F023EFA424BD
:10A46000BFF582E5F03400F583759300E0FFEF70EF
:10A47000267883E6FF7E23EF8EF0A4FFAEF074A66D
:10A480002FF974003EFA7B0190002DC7EBF0A3EA90
:10A49000F0A3E9F001A5277883E6FF75F023EFA488
:10A4A00024BFF582E5F03400F583759300E0FFEFFB
:10A4B0006407706D90002DC7E0FBA3E0FAA3E0F9FC
:10A4C000AE02AF01EF4E603690002DC7E0FBA3E077
:10A4D000FAA3E0F9E9241AF9EA3400FA120070420A
:10A4E000FF7883E6FE75F023EEA424C0F582E5F044
:10A4F0003400F583759300E0FEEED39F402378830C
:10A50000E6FF7E23EF8EF0A4FFAEF074A62FF97461
:10A51000003EFA7B0190002DC7EBF0A3EAF0A3E91F
:10A52000F078830601A44990002DC7E0FBA3E0FA70
:10A53000A3E0F9AE02AF01EF64FF7003EE64FF70B9
:10A540000301C7AB90002DC7E0FBA3E0FAA3E0F93D
:10A55000E92422F9EA3400FA741012007093900092
:10A560002DC7E0FBA3E0FAA3E0F9AE02AF01900033
:10A5700002D9EEF0A3EFF090002DC7E0FBA3E0FAC4
:10A58000A3E0F9E9241AF9EA3400FA74031200701E
:10A590009390002DC7E0FBA3E0FAA3E0F9E92418AB
:10A5A000F9EA3400FA74031200709390002DC7E0AA
:10A5B000FBA3E0FAA3E0F9E92416F9EA3400FAE48F
:10A5C0001200709390002DC7E0FBA3E0FAA3E0F91E
:10A5D000E92417F9EA3400FA740412007093900029
:10A5E0002DC7E0FBA3E0FAA3E0F9E9241BF9EA3464
:10A5F00000FAE412007093900002D6E0FBA3E0FAA8
:10A60000A3E0F9E92416F9EA3400FA120070E5FF34
:10A61000AEF090002DC7E0FBA3E0FAA3E0F9E92437
:10A6200004F9EA3400FAEE8FF0120071359000025E
:10A63000D6E0FBA3E0FAA3E0F9E92414F9EA340038
:10A64000FA120070E5FFAEF090002DC7E0FBA3E02A
:10A65000FAA3E0F9E92406F9EA3400FAEE8FF012E1
:10A66000007135900002D6E0FBA3E0FAA3E0F9E91F
:10A67000240CF9EA3400FA120070E5FFAEF0900005
:10A680002DC7E0FBA3E0FAA3E0F9EE8FF012007112
:10A6900035900002D6E0FBA3E0FAA3E0F9E9240E2E
:10A6A000F9EA3400FA120070E5FFAEF090002DC711
:10A6B000E0FBA3E0FAA3E0F9E92402F9EA3400FAA6
:10A6C000EE8FF01200713590002DC7E0FBA3E0FA89
:10A6D000A3E0F9E92419F9EA3400FA7401120070D0
:10A6E0009390002DC7E0FBA3E0FAA3E0F9E9241E54
:10A6F000F9EA3400FAE41200709390002DC7E0FBF1
:10A70000A3E0FAA3E0F9E92420F9EA3400FAE475B9
:10A71000F0001200713590002DC7E0FBA3E0FAA312
:10A72000E0F9E9241FF9EA3400FAE41200709378A2
:10A730007EE6FF90002DC7E0FBA3E0FAA3E0F9E975
:10A74000240CF9EA3400FAEF12007093787FE6FFE8
:10A7500090002DC7E0FBA3E0FAA3E0F9E9240DF98E
:10A76000EA3400FAEF120070937880E6FF90002D33
:10A77000C7E0FBA3E0FAA3E0F9E9240EF9EA34000C
:10A78000FAEF120070937881E6FF90002DC7E0FB8E
:10A79000A3E0FAA3E0F9E9240FF9EA3400FAEF1292
:10A7A00000709390002DC7E0FBA3E0FAA3E0F9E965
:10A7B0002410F9EA3400FAE475F0011200713590C2
:10A7C0000002D6E0FBA3E0FAA3E0F9E9241BF9EAD2
:10A7D0003400FA12007042FF90002DC7E0FBA3E0A6
:10A7E000FAA3E0F9E9240BF9EA3400FAEF12007059
:10A7F00093900002D6E0FBA3E0FAA3E0F9E9241A63
:10A80000F9EA3400FA12007042FF90002DC7E0FB15
:10A81000A3E0FAA3E0F9E9240AF9EA3400FAEF1216
:10A82000007093900002D6E0FBA3E0FAA3E0F9E900
:10A830002419F9EA3400FA12007042FF90002DC783
:10A84000E0FBA3E0FAA3E0F9E92409F9EA3400FA0D
:10A85000EF12007093900002D6E0FBA3E0FAA3E0B1
:10A86000F9E92418F9EA3400FA12007042FF900066
:10A870002DC7E0FBA3E0FAA3E0F9E92408F9EA34E4
:10A8800000FAEF120070937F017E00120211A29075
:10A890000002D6E0FBA3E0FAA3E0F9E92422F9EAFA
:10A8A0003400FA12007042FF90002DC7E0FBA3E0D5
:10A8B000FAA3E0F9E9241CF9EA3400FAEF12007077
:10A8C00093900002D6E0FBA3E0FAA3E0F9E9242389
:10A8D000F9EA3400FA12007042FF90002DC7E0FB45
:10A8E000A3E0FAA3E0F9E9241DF9EA3400FAEF1233
:10A8F000007093900002D6E0FBA3E0FAA3E0F9E930
:10A900002420F9EA3400FA12007042FFEF54F0FFFD
:10A91000EFD39450500301AB477883760090000248
:10A92000D6E0FBA3E0FAA3E0F9E92420F9EA340039
:10A93000FA12007042FFEFC4540FFF7E00C3EF9481
:10A9400005FFEE9400FEEF7802C333CE33CED8F984
:10A95000FF7883E6FD7C00C3ED9FEE6480F8EC6435
:10A960008098400301AB477883E6FF7E0090000F9C
:10A970001EE0FD7C00ED2FFFEC3EFE9000134FE04B
:10A98000FD7C00EF2DFFEE3CFE74032FF582740377
:10A990003EF583759300E0FF7882A6077882E6FF94
:10A9A000EF700601AB4701A91D7882E6FFEFB40105
:10A9B0000678830601A91D7882E6FFEF6402600332
:10A9C00001AADA7883E6FF7E0090000F1EE0FD7C8E
:10A9D00000ED2FFFEC3EFE9000134FE0FD7C00EFFA
:10A9E0002DFFEE3CFE74042FF58274033EF5837553
:10A9F0009300E0FFEF6404600301AADA7883E6FFC6
:10AA00007E0090000F1EE0FD7C00ED2FFFEC3EFE6F
:10AA10009000134FE0FD7C00EF2DFFEE3CFE74052F
:10AA20002FF58274033EF583759300E0FF7E00EFFF
:10AA30007F00FE7883E6FD7C0090000F1EE0FB7A2D
:10AA400000EB2DFDEA3CFC9000134FE0FB7A00ED9B
:10AA50002BFDEC3AFC74062DF58274033CF58375EE
:10AA60009300E0FD7C00EE4CFEEF4DFF7872A606F1
:10AA700008A60790001349E0FEA3E0FF7872E6FC09
:10AA800008E6FDD3ED9FEC9E400B90001349E0FEDD
:10AA9000A3E0FF80077872E6FE08E6FF90002DC76E
:10AAA000E0FBA3E0FAA3E0F9E92412F9EA3400FAA2
:10AAB000EE8FF0FEAFF01200713590002DC7E0FB75
:10AAC000A3E0FAA3E0F9E92414F9EA3400FAEE8FDE
:10AAD000F012007135807001A91D7883E6FF7E00B9
:10AAE00090000F1EE0FD7C00ED2FFFEC3EFE90007D
:10AAF000134FE0FD7C00EF2DFFEE3CFE74042FF5BC
:10AB00008274033EF583759300E0FFEF603978832C
:10AB1000E6FF7E0090000F1EE0FD7C00ED2FFFECB5
:10AB20003EFE9000134FE0FD7C00EF2DFFEE3CFE5B
:10AB300074042FF58274033EF583759300E0FF786B
:10AB400083EF26F601A91D900002D6E0FBA3E0FAF0
:10AB5000A3E0F9E92421F9EA3400FA741012007034
:10AB600093900002D6E0FBA3E0FAA3E0F9E92421E8
:10AB7000F9EA3400FA12007042FFEF4402FFEF12CC
:10AB8000007093900002D6E0FBA3E0FAA3E0F9E99D
:10AB90002428F9EA3400FA7402120070939000023B
:10ABA000D6E0FBA3E0FAA3E0F9E92429F9EA3400AE
:10ABB000FA74041200709390001349E0FEA3E0FFC2
:10ABC000EEFF7E00900002D6E0FBA3E0FAA3E0F9DE
:10ABD000E9242AF9EA3400FAEF1200709390001386
:10ABE00049E0FEA3E0FFEF54FFFF900002D6E0FB38
:10ABF000A3E0FAA3E0F9E9242BF9EA3400FAEF1212
:10AC00000070937886760008762C900002D6E0FBE0
:10AC1000A3E0FAA3E0F9E92420F9EA3400FA746029
:10AC20001200709301C2C890002DC7E0FBA3E0FAA8
:10AC3000A3E0F9AE02AF01900002D9EEF0A3EFF06D
:10AC400078747600900008C7E4F0900002D6E0FB2C
:10AC5000A3E0FAA3E0F9E92421F9EA3400FA1200AA
:10AC60007042FFEF30E22490002DC7E0FBA3E0FA32
:10AC7000A3E0F9E92419F9EA3400FAE41200709328
:10AC8000787476201200F6CA01C7AB900002D6E0B5
:10AC9000FBA3E0FAA3E0F9E92420F9EA3400FA1270
:10ACA000007042FFEFC4540FFFEF25E025E0FF786E
:10ACB00083A6077883E6FF7E007886E6FC08E6FD3B
:10ACC000C3ED9FFFEC9EFEC3EF9414FFEE9400FED5
:10ACD0007886A60608A6077886E6FE08E6FFD3EF84
:10ACE0009400EE94005020900002D6E0FBA3E0FA1E
:10ACF000A3E0F9E92421F9EA3400FA12007042FFD6
:10AD0000EF20E00301ADEB90002DC7E0FBA3E0FADC
:10AD1000A3E0F9E92408F9EA3400FA12007042FFCE
:10AD2000900002D6E0FBA3E0FAA3E0F9E92418F9C9
:10AD3000EA3400FA12007042FEEE6F600301C28D29
:10AD400090002DC7E0FBA3E0FAA3E0F9E92409F99C
:10AD5000EA3400FA12007042FF900002D6E0FBA332
:10AD6000E0FAA3E0F9E92419F9EA3400FA120070D4
:10AD700042FEEE6F600301C28D90002DC7E0FBA381
:10AD8000E0FAA3E0F9E9240AF9EA3400FA120070C3
:10AD900042FF900002D6E0FBA3E0FAA3E0F9E92429
:10ADA0001AF9EA3400FA12007042FEEE6F600301F5
:10ADB000C28D90002DC7E0FBA3E0FAA3E0F9E924DF
:10ADC0000BF9EA3400FA12007042FF900002D6E05C
:10ADD000FBA3E0FAA3E0F9E9241BF9EA3400FA1234
:10ADE000007042FEEE6F600301C28D900002D6E05B
:10ADF000FBA3E0FAA3E0F9E92421F9EA3400FA120E
:10AE0000007042FFEF20E40301B42390002DC7E05F
:10AE1000FBA3E0FAA3E0F9E92410F9EA3400FA12FE
:10AE20000070E5FFAEF0EF4E700301B42390002DEB
:10AE3000C7E0FBA3E0FAA3E0F9E9240CF9EA340047
:10AE4000FAC003C002C00190002DC7E0FBA3E0FAE6
:10AE5000A3E0F9E92410F9EA3400FA120070E5FDE4
:10AE6000ACF0D001D002D0031201F519900002D647
:10AE7000E0FBA3E0FAA3E0F9E9241CF9EA3400FAC4
:10AE800012007042FF9000009FE0FEEF6E60030131
:10AE9000B159900002D6E0FBA3E0FAA3E0F9E9245F
:10AEA0001DF9EA3400FA12007042FF900000A0E0A1
:10AEB000FEEF6E600301B159900002D6E0FBA3E003
:10AEC000FAA3E0F9E9241EF9EA3400FA120070420C
:10AED000FF900000A1E0FEEF6E600301B159900009
:10AEE00002D6E0FBA3E0FAA3E0F9E9241FF9EA3473
:10AEF00000FA12007042FF900000A2E0FEEF6E60C8
:10AF00000301B1599000009FE0FF90002DC7E0FBC6
:10AF1000A3E0FAA3E0F9E9240CF9EA3400FAEF120D
:10AF2000007093900000A0E0FF90002DC7E0FBA30D
:10AF3000E0FAA3E0F9E9240DF9EA3400FAEF12008F
:10AF40007093900000A1E0FF90002DC7E0FBA3E00C
:10AF5000FAA3E0F9E9240EF9EA3400FAEF120070DE
:10AF600093900000A2E0FF90002DC7E0FBA3E0FA61
:10AF7000A3E0F9E9240FF9EA3400FAEF1200709324
:10AF800090002DC7E0FBA3E0FAA3E0F9E9241BF948
:10AF9000EA3400FA12007042FFEF600301B0EB9058
:10AFA000002DC7E0FBA3E0FAA3E0F9E9241AF9EACF
:10AFB0003400FA12007042FF90002DC7E0FBA3E0BE
:10AFC000FAA3E0F9E92418F9EA3400FA1200704211
:10AFD000FEC3EE9FFF90002DCAEFF090002DCAE057
:10AFE000FF90002DC7E0FBA3E0FAA3E0F9E92416E7
:10AFF000F9EA3400FA12007042FEEE131313541FE4
:10B00000FEC3EF9EFF90002DCAEFF090002DCAE026
:10B01000FF90002DC7E0FBA3E0FAA3E0F9E92416B6
:10B02000F9EA3400FAEF1200707790002DCAE0FFC1
:10B03000C3EF64809480501090002DCAE0FFEFF4BD
:10B0400004FF90002DCAEFF090002DCAE0FF9000A1
:10B050002DC7E0FBA3E0FAA3E0F9E92417F9EA34ED
:10B0600000FA12007042FEEE1313543FFEC3EF9E2F
:10B07000FF90002DCAEFF090002DCAE0FF90002D48
:10B08000C7E0FBA3E0FAA3E0F9E92417F9EA3400EA
:10B09000FAEF1200707790002DC7E0FBA3E0FAA34F
:10B0A000E0F9E92416F9EA3400FA12007042FFEFE1
:10B0B000131313541FFF90002DC7E0FBA3E0FAA366
:10B0C000E0F9E92417F9EA3400FA12007042FEEFC1
:10B0D0002EFF90002DC7E0FBA3E0FAA3E0F9E924DE
:10B0E00018F9EA3400FAEF12007093787476019040
:10B0F000002DC7E0FBA3E0FAA3E0F9E92418F9EA80
:10B100003400FA12007042FF90002DC7E0FBA3E06C
:10B11000FAA3E0F9E9241AF9EA3400FAEF12007010
:10B120009390002DC7E0FBA3E0FAA3E0F9E9242007
:10B13000F9EA3400FAE475F0001200713590002D40
:10B14000C7E0FBA3E0FAA3E0F9E9241FF9EA340021
:10B15000FAE41200709301B42390002DC7E0FBA322
:10B16000E0FAA3E0F9E9240CF9EA3400FA120070DD
:10B1700042FF900002D6E0FBA3E0FAA3E0F9E92445
:10B180001CF9EA3400FA12007042FEEE6F6003010F
:10B19000B42390002DC7E0FBA3E0FAA3E0F9E92473
:10B1A0000DF9EA3400FA12007042FF900002D6E076
:10B1B000FBA3E0FAA3E0F9E9241DF9EA3400FA124E
:10B1C000007042FEEE6F600301B42390002DC7E0D3
:10B1D000FBA3E0FAA3E0F9E9240EF9EA3400FA123D
:10B1E000007042FF900002D6E0FBA3E0FAA3E0F972
:10B1F000E9241EF9EA3400FA12007042FEEE6F6094
:10B200000301B42390002DC7E0FBA3E0FAA3E0F90B
:10B21000E9240FF9EA3400FA12007042FF900002AC
:10B22000D6E0FBA3E0FAA3E0F9E9241FF9EA340031
:10B23000FA12007042FEEE6F600301B42390000822
:10B24000C7E0FFEF4480FF900008C7EFF090002DAB
:10B25000C7E0FBA3E0FAA3E0F9E9241BF9EA340014
:10B26000FA12007042FFEF600301B3B890002DC7DF
:10B27000E0FBA3E0FAA3E0F9E9241AF9EA3400FAC2
:10B2800012007042FF90002DC7E0FBA3E0FAA3E09C
:10B29000F9E92418F9EA3400FA12007042FEC3EE0C
:10B2A0009FFF90002DCAEFF090002DCAE0FF9000A4
:10B2B0002DC7E0FBA3E0FAA3E0F9E92416F9EA348C
:10B2C00000FA12007042FEEE131313541FFEC3EF78
:10B2D0009EFF90002DCAEFF090002DCAE0FF900075
:10B2E0002DC7E0FBA3E0FAA3E0F9E92416F9EA345C
:10B2F00000FAEF1200707790002DCAE0FFC3EF64F0
:10B30000809480501090002DCAE0FFEFF404FF906D
:10B31000002DCAEFF090002DCAE0FF90002DC7E08D
:10B32000FBA3E0FAA3E0F9E92417F9EA3400FA12E2
:10B33000007042FEEE1313543FFEC3EF9EFF9000D9
:10B340002DCAEFF090002DCAE0FF90002DC7E0FB62
:10B35000A3E0FAA3E0F9E92417F9EA3400FAEF12BE
:10B3600000707790002DC7E0FBA3E0FAA3E0F9E9B5
:10B370002416F9EA3400FA12007042FFEF13131397
:10B38000541FFF90002DC7E0FBA3E0FAA3E0F9E90A
:10B390002417F9EA3400FA12007042FEEF2EFF90F3
:10B3A000002DC7E0FBA3E0FAA3E0F9E92418F9EACD
:10B3B0003400FAEF120070937874760190002DC774
:10B3C000E0FBA3E0FAA3E0F9E92418F9EA3400FA73
:10B3D00012007042FF90002DC7E0FBA3E0FAA3E04B
:10B3E000F9E9241AF9EA3400FAEF12007093900098
:10B3F0002DC7E0FBA3E0FAA3E0F9E92420F9EA3441
:10B4000000FAE475F0001200713590002DC7E0FBE2
:10B41000A3E0FAA3E0F9E9241FF9EA3400FAE41200
:10B42000007093900002D6E0FBA3E0FAA3E0F9E9F4
:10B430002422F9EA3400FA12007042FFEFC394406C
:10B44000502F90002DC7E0FBA3E0FAA3E0F9E92418
:10B450001CF9EA3400FA12007042FFEFD3948040E6
:10B4600010900008C7E0FFEF4440FF900008C7EFCE
:10B47000F090002DC7E0FBA3E0FAA3E0F9E924195E
:10B48000F9EA3400FA12007042FFEF540FFFEF1296
:10B4900000738CB4AF01B52C02B93A03C09804C153
:10B4A000B505C24C06C28D07C069080000C7AB785D
:10B4B00074E6FFEF20E00301C7AB90002DC7E0FB6F
:10B4C000A3E0FAA3E0F9E92419F9EA3400FA7403D5
:10B4D000120070937874764090002DC7E0FBA3E0D3
:10B4E000FAA3E0F9E92410F9EA3400FAE475F0006F
:10B4F000120071357886E6FE08E6FFD3EF9400EE81
:10B50000940040177874E6FFEF4402FF7874A607B2
:10B510007886E6FE08E6FF120211A278847600081B
:10B5200076001200F6CA01BD7401C7AB7874E6FF5D
:10B53000EF20E00301B92F900002D6E0FBA3E0FA70
:10B54000A3E0F9E92421F9EA3400FA12007042FF7D
:10B55000EF6412600301B92F900002D6E0FBA3E074
:10B56000FAA3E0F9E92420F9EA3400FA1200704263
:10B57000FFEF54F0FFEFD39450500301B7AC788342
:10B580007600900002D6E0FBA3E0FAA3E0F9E924FC
:10B5900020F9EA3400FA12007042FFEFC4540FFFA2
:10B5A0007E00C3EF9405FFEE9400FEEF7802C333F4
:10B5B000CE33CED8F9FF7883E6FD7C00C3ED9FEE55
:10B5C0006480F8EC648098400301B7AC7883E6FFB0
:10B5D0007E0090000F1EE0FD7C00ED2FFFEC3EFE94
:10B5E0009000134FE0FD7C00EF2DFFEE3CFE740356
:10B5F0002FF58274033EF583759300E0FF7882A6F1
:10B60000077882E6FFEF700601B7AC01B582788259
:10B61000E6FFEFB4010678830601B5827882E6FF83
:10B62000EF6402600301B73F7883E6FF7E0090007D
:10B630000F1EE0FD7C00ED2FFFEC3EFE9000134F4F
:10B64000E0FD7C00EF2DFFEE3CFE74042FF58274CC
:10B65000033EF583759300E0FFEF6404600301B7D8
:10B660003F7883E6FF7E0090000F1EE0FD7C00ED3A
:10B670002FFFEC3EFE9000134FE0FD7C00EF2DFF0E
:10B68000EE3CFE74052FF58274033EF5837593003E
:10B69000E0FF7E00EF7F00FE7883E6FD7C009000F7
:10B6A0000F1EE0FB7A00EB2DFDEA3CFC9000134FEF
:10B6B000E0FB7A00ED2BFDEC3AFC74062DF582746C
:10B6C000033CF583759300E0FD7C00EE4CFEEF4DEE
:10B6D000FF7872A60608A60790001349E0FEA3E0D3
:10B6E000FF7872E6FC08E6FDD3ED9FEC9E400B90E0
:10B6F000001349E0FEA3E0FF80077872E6FE08E64B
:10B70000FF90002DC7E0FBA3E0FAA3E0F9E92412C3
:10B71000F9EA3400FAEE8FF0FEAFF01200713590C6
:10B72000002DC7E0FBA3E0FAA3E0F9E92414F9EA4D
:10B730003400FAEE8FF012007135807001B5827816
:10B7400083E6FF7E0090000F1EE0FD7C00ED2FFFE2
:10B75000EC3EFE9000134FE0FD7C00EF2DFFEE3C31
:10B76000FE74042FF58274033EF583759300E0FFA9
:10B77000EF60397883E6FF7E0090000F1EE0FD7CCD
:10B7800000ED2FFFEC3EFE9000134FE0FD7C00EF3C
:10B790002DFFEE3CFE74042FF58274033EF5837595
:10B7A0009300E0FF7883EF26F601B58290002DC765
:10B7B000E0FBA3E0FAA3E0F9E92419F9EA3400FA7E
:10B7C000740312007093900002D6E0FBA3E0FAA38A
:10B7D000E0F9E92418F9EA3400FA12007042FF9007
:10B7E000002DC7E0FBA3E0FAA3E0F9E92408F9EA99
:10B7F0003400FAEF12007093900002D6E0FBA3E051
:10B80000FAA3E0F9E92419F9EA3400FA12007042C7
:10B81000FF90002DC7E0FBA3E0FAA3E0F9E92409BB
:10B82000F9EA3400FAEF12007093900002D6E0FBC0
:10B83000A3E0FAA3E0F9E9241AF9EA3400FA1200C5
:10B840007042FF90002DC7E0FBA3E0FAA3E0F9E906
:10B85000240AF9EA3400FAEF12007093900002D63D
:10B86000E0FBA3E0FAA3E0F9E9241BF9EA3400FACB
:10B8700012007042FF90002DC7E0FBA3E0FAA3E0A6
:10B88000F9E9240BF9EA3400FAEF120070937F0112
:10B890007E00120211A2900002D6E0FBA3E0FAA300
:10B8A000E0F9E92422F9EA3400FA12007042FF902C
:10B8B000002DC7E0FBA3E0FAA3E0F9E9241CF9EAB4
:10B8C0003400FAEF12007093900002D6E0FBA3E080
:10B8D000FAA3E0F9E92423F9EA3400FA12007042ED
:10B8E000FF90002DC7E0FBA3E0FAA3E0F9E9241DD7
:10B8F000F9EA3400FAEF12007093787476429000FF
:10B900002DC7E0FBA3E0FAA3E0F9E92410F9EA343B
:10B9100000FAE475F000120071357886760008763A
:10B9200000788476000876001200F6CA01BD7478AB
:10B930007476201200F6CA01A043900002D6E0FB04
:10B94000A3E0FAA3E0F9E92421F9EA3400FA1200AD
:10B950007042FFEF20E00301BA187886E6FE08E6A1
:10B96000FFEF2401FFEE3400FE120211A27874767C
:10B97000107886E6FE08E6FFD3EF9400EE940040D0
:10B980000C7874E6FFEF4402FF7874A6071200F605
:10B99000CA900002D9E0FEA3E0FFAA06A9077B0136
:10B9A00090002DC7EBF0A3EAF0A3E9F090002DC7BB
:10B9B000E0FBA3E0FAA3E0F9E92410F9EA3400FA85
:10B9C000E475F0011200713590002DC7E0FBA3E093
:10B9D000FAA3E0F9E92419F9EA3400FA740812002C
:10B9E000709390002DC7E0FBA3E0FAA3E0F9E924EF
:10B9F0001BF9EA3400FAE412007093900002D6E0DA
:10BA0000FBA3E0FAA3E0F9E92421F9EA3400FA748F
:10BA1000111200709301C2A7900002D6E0FBA3E0D0
:10BA2000FAA3E0F9E92421F9EA3400FA120070429D
:10BA3000FFEF20E50301BAE3900002D6E0FBA3E0AC
:10BA4000FAA3E0F9E92426F9EA3400FA1200704278
:10BA5000FF7F00900002D6E0FBA3E0FAA3E0F9E943
:10BA60002427F9EA3400FA12007042FEEF4EFF7804
:10BA700075A6077875E6FF7E007886E6FC08E6FD89
:10BA8000D3EF9DEE9C400B7886E6FE08E6FF7875C6
:10BA9000A6077875E6FF7E00120211A27886E6FE00
:10BAA00008E6FF7875E6FD7C00C3EF9DFFEE9CFE87
:10BAB0007886A60608A60790000099E0FBA3E0FAA6
:10BAC000A3E0F99000009CEBF0A3EAF0A3E9F07882
:10BAD00075E6FF7E009000009AEE8FF0120070B9BC
