:020000040000FA
:04003B00020030008F
:0D300000C0E0439A80E59A20E0FBD0E0326A
:1060200002884BE94A4B7001221200704EFF6D70DE
:106030000122EF7004FBFAF92209E970EC0A80E909
:10604000D2E822020208D63098FDAF99C2987E00AD
:10605000220022020209E4286E756C6C29000000FF
:10606000000000000000000000002202023F0D437B
:106070008F022202023E10222222220202616A3E86
:106080003E2000456E7465722050617373776F72A5
:10609000642000202121554E53454355524521216E
:1060A0002000636F6D6D616E640073686F7274635E
:1060B000757400636F6D6D616E642066756E6374D8
:1060C000696F6E616C206465736372697074696F67
:1060D0006E0068656C70003F00646973706C617974
:1060E0002068656C70206D657373616765732066E9
:1060F0006F72206D656E7573007265626F6F7400EC
:106100007262005265626F6F742074686520646506
:106110007669636520776974686F75742063686158
:106120006E67696E672073657474696E6773006D5E
:106130006573736167655F6672616D6573006D6637
:10614000006F757470757420746865206461746183
:106150002061727261797320686F6C64696E672068
:1061600074686520686F73742064617461006D6188
:10617000736B0072656164206F72207365742074A4
:106180006865204950207375626E6574206D617377
:106190006B00777269746500777200777269746555
:1061A000206461746120746F2074686520493243F3
:1061B00020454550524F4D00736C61766573746194
:1061C000747573310A0D00736C6176657374617454
:1061D0007573320A0D006669726D776172652031E0
:1061E0000A0D006669726D7761726520320A0D00D2
:1061F00073686F775F6465766963655F636F6E660A
:1062000069670031416D626967756F757320636FEF
:106210006D6D616E643A202573202564750A0D004A
:1062200032416D626967756F757320636F6D6D6163
:106230006E643A202573202564750A0D00556E6B37
:106240006E6F776E20636F6D6D616E643A2025739B
:106250000A0D000A53494D54454B20494E432E2008
:1062600064657669636520636F6E666967757261E0
:1062700074696F6E206D656E7520282573202573F7
:10628000290A0D0030372F30312F32310031363AA4
:1062900032373A31370020280029202020202020C2
:1062A000202020202020200000000D202D2D2D2D2D
:1062B0002D2D2D2D2D2D2D2D2D2D2D2D2D2D2D2D0E
:1062C0002D2D2D2D2D2D2D2D2020202D2D2D2D2D25
:1062D0002D2D2D2D2D2D2D2D2D2D2D2D2D2D2D2DEE
:1062E0002D2D2D2D2D2D2D2D2D2D2D2D2D2D2D2DDE
:1062F0002D2D2D2D2D2D0A0D0029002020252D328C
:106300003773202D2025730A0D000A0D00556E6B82
:106310006E6F776E2068656C7020706172616D655C
:106320007465722025730A0D005573616765203A04
:106330002072656164203C646576696365206164F0
:1063400064726573733E203C6D656D6F7279206178
:106350006464726573733E203C6D656D6F72792065
:106360006C656E6774683E0A0D0044657669636506
:106370002061646472657373206572726F722E0A95
:106380000D0025730A0054686520646576696365AD
:106390002061646472657373206973206F75742063
:1063A0006F662072616E67652E0A0D004E6F206D5C
:1063B000656D6F72792061646472657373207370A8
:1063C000656369666965640A0D004D656D6F727974
:1063D0002061646472657373206572726F722E0A35
:1063E0000D00546865206D656D6F7279206164647D
:1063F00072657373206973206F7574206F662072E5
:10640000616E67652E0A0D004E6F20726561642013
:106410006C656E677468207370656369666965642E
:106420000A0D004D656D6F7279206C656E6774683A
:10643000206572726F722E0A0D006C656E6774684B
:10644000203D20256C750A0D00546865206C656E32
:10645000677468206973206F7574206F662072619D
:106460006E67652E0A0D00204164647265737320A7
:106470002020203030203031203032203033203086
:106480003420303520303620303720303820303935
:1064900020304120304220304320304420304520FD
:1064A00030460A0D002020202020202020207C2D96
:1064B0002D2D2D2D2D2D2D2D2D2D2D2D2D2D2D2D0C
:1064C0002D2D2D2D2D2D2D2D2D2D2D2D2D2D2D2DFC
:1064D0002D2D2D2D2D2D2D2D2D2D2D2D2D2D2D2DEC
:1064E0002D0A0D0020416464726573732020202002
:1064F000002530326278200020202020202020201B
:10650000207C2D2D002D2D2D002030782530346459
:106510007820207C20200052656164204572726FD3
:10652000722E0A005573616765203A2070777220D9
:106530003C64657669636520616464726573733E6B
:10654000203C6D656D6F7279206164647265737350
:106550003E203C6D656D6F727920646174613E0A06
:106560000D004E6F206D656D6F72792064617461EE
:10657000207370656369666965640A0D004D656D19
:106580006F72792064617461206572726F722E0A75
:106590000D005468652064617461206973206F7513
:1065A00074206F662072616E67652E0A0D00577247
:1065B0006974652041646472657373203A20256CA8
:1065C000780A0D0057726974652044617461203A3D
:1065D00020005772697465204572726F720055739E
:1065E000616765202020202020202020203A0A0DED
:1065F00000777269746520746F2070726F6D20204F
:106600003A202573203C73746172745F6164647214
:106610003E203C656E645F616464723E203C646150
:1066200074613E0062616420617267756D656E74AD
:1066300020310A0D0062616420617267756D656EBC
:106640007420320A0D0062616420617267756D65A5
:106650006E7420330A0D0063686172616374657241
:10666000203A2025303262780A0D0073746172740A
:1066700020202020203A2025303262780A0D006543
:106680006E64202020202020203A2025303264789B
:106690000A0D006C656E677468202020203A202562
:1066A00064750A0D0072616E6765206572726F72A3
:1066B0000A0D00756E61626C6520746F20616C6CF0
:1066C0006F63617465207265717569726564206DB0
:1066D000656D6F72792073697A65006C656E202034
:1066E00020202020203A202564640A0D25730053C1
:1066F000696D74656B002A2A2A2A2A2A000D002552
:106700006300082008004E6F206D6F726520726F65
:106710006F6D20666F72206D656E752061646469AF
:106720006E670A0053797374656D206572726F72BB
:106730002C2066756E6374696F6E203C5554494C0D
:106740005F53746F6F6765733E2073686F756C6419
:10675000206E6F742062652063616C6C65640A0052
:10676000252D3234733A00202530326278000A0D2C
:10677000252D3234733A0000636865636B73756D61
:1067800020757064617465640A0D00444342204CB6
:10679000656E6774680030313233343536373839D6
:1067A00020000A0D496E76616C696420636861722D
:1067B000616374657220696E20495020616464725F
:1067C0006573732E205468652076616C696420635C
:1067D00068617261637465722073657420697320E7
:1067E0002730313233343536373839202E270A0DE9
:1067F000000A0D496E76616C69642063686172619C
:106800006374657220696E20706F7274206E756D8E
:106810006265720A0D005468652076616C696420B7
:106820006368617261637465722073657420697353
:1068300020273031323334353637383920270A0DA6
:10684000006D6163203A20005265616420457272D8
:106850006F722E00726561642066726F6D207072B7
:106860006F6D203A206D61630A0D0077726974655F
:1068700020746F2070726F6D20203A206D6163204C
:106880003C6F63746574313E203C6F637465743291
:106890003E203C6F63746574333E203C6F637465C7
:1068A00074343E203C6F63746574353E203C6F63E6
:1068B000746574363E00526561642D4261636B20DD
:1068C0004572726F7200496E636F6D706C657465AE
:1068D000204D414320616464726573733F0A0D006B
:1068E0005573616765203A206D6163203C6F637466
:1068F0006574313E203C6F63746574323E203C6F9A
:1069000063746574333E203C6F63746574343E2059
:106910003C6F63746574353E203C6F6374657436F8
:106920003E002573203A20257320282530346478D2
:106930002900726561642066726F6D2070726F6DE0
:10694000203A2025730A0D00777269746520746FF0
:106950002070726F6D20203A202573203C25732F04
:1069600025733E0052656164204572726F72004467
:1069700048435020436C69656E74006469736162BA
:106980006C6500656E61626C650055445020507204
:106990006F746F636F6C006F6666006F6E005443B8
:1069A000502050726F746F636F6C005544502042DA
:1069B000726F646163617374732052656369657695
:1069C0006564005472616E736D6974204D6F646507
:1069D0000073657276657200636C69656E7400524F
:1069E00065706F7274204D6574686F6400706F6CB1
:1069F0006C6564007265616C74696D6500537461E7
:106A0000747573204275660044696D6D696E672008
:106A1000427566006E616D65203A202573007265CF
:106A200061642066726F6D2070726F6D203A206E07
:106A3000616D650A0D00777269746520746F20704E
:106A4000726F6D20203A206E616D65203C63686135
:106A500072313E202E2E2E203C6368617231353E0D
:106A60000A0D002573203A20256970007772697439
:106A70006520746F2070726F6D20203A202573207E
:106A80003C6F63746574313E2E3C6F637465743281
:106A90003E2E3C6F63746574333E2E3C6F637465A9
:106AA00074343E00496E636F6D706C657465204987
:106AB00050763420616464726573733F0A0D00552B
:106AC00073616765203A20686F73745F6970203C5A
:106AD0006F63746574313E2E3C6F63746574323E2F
:106AE0002E3C6F63746574333E2E3C6F6374657423
:106AF000343E00446576696365205365727665723D
:106B00002049500044657669636520436C69656E71
:106B10007420495000486F737420436C69656E742B
:106B200020495000486F7374205365727665722057
:106B30004950005375626E6574204D61736B00257A
:106B400073203A200025647500777269746520749B
:106B50006F2070726F6D20203A202573203C776F74
:106B600072643E00496E76616C696420636861728C
:106B7000616374657220696E20706F7274206E7527
:106B80006D6265723F0A0D005573616765203A209A
:106B90002573203C776F72643E00446576696365B7
:106BA0002053657276657220506F7274004465766A
:106BB00069636520436C69656E7420506F72740060
:106BC00044657669636520556E696361737420500E
:106BD0006F7274004465766963652042726F616408
:106BE0006361737420506F727400486F7374205324
:106BF000657276657220506F727400486F737420EE
:106C0000436C69656E7420506F72740064656661D0
:106C1000756C74732075706461746564207375633A
:106C200065737366756C6C790044656661756C7428
:106C300020444342205772697465204572726F7216
:106C4000004443422052656164204572726F7200B5
:106C50005265736574207468652064657669636540
:106C600020746F207468652064656661756C74209B
:106C700073657474696E67730A0D005265626F6F95
:106C8000742074686520646576696365207769742B
:106C9000686F757420736176696E67206368616ED2
:106CA0006765730A0D002A2A2A2A2A2A2A2A2A2AEA
:106CB0002A2A2A2A2A2A2A2A2A2A2A2A2A2A2A2A34
:106CC0002A2A2A2A2A2A2A2A2A2A2A2A2A2A2A2A24
:106CD0002A2A2A2A2A2A2A2A2A2A2A2A2A2A2A2A14
:106CE0002A2A2A2A0A0D00252D3234733A2025300B
:106CF0003262780A0D0020204F7020436F646500D7
:106D000020204F7074696F6E0020204E6574776F7D
:106D1000726B00252D3234733A202564750A0D00FC
:106D2000202042726F61646361737420506F7274CB
:106D300000252D3234733A20256C780A0D0020206E
:106D40005365727665724950002573257300676933
:106D500076656E2070617373776F7264203D2025B5
:106D600073206C3D25647520703D2564750A0D0007
:106D7000214572726F7221203A20746F6F206D610D
:106D80006E79206368617261637465727320656EE9
:106D900074657265640A0D002020202020202020C8
:106DA000202070617373776F72642063616E20625C
:106DB00065206265747765656E203120616E6420A0
:106DC000313020636861726163746572730A0D000B
:106DD0002020202020202020202061636365707403
:106DE00061626C65206368617261637465727320AF
:106DF0006172652025730A0D00214572726F722140
:106E0000203A20696E76616C696420636861726102
:106E1000637465727320696E206E6577207061738C
:106E200073776F72640A0D00214572726F722120B0
:106E30003A206E6F206E65772070617373776F7282
:106E40006420676976656E2E0A0D002055736167B0
:106E50006520203A206368616E67655F70617373B7
:106E6000776F7264203C6E65772070617373776F03
:106E700072643E0A0D00214572726F7221203A2021
:106E8000696E76616C69642070617373776F726488
:106E90002073746F7265640A0D0073746F72656499
:106EA0002070617373776F726420726573657420EC
:106EB000746F2064656675616C740A0D00616C6C9A
:106EC00020636861727320666F756E6420703D2563
:106ED000647520652564750A0D0073746F726564AE
:106EE0002070617373776F72642076616C69640AD5
:106EF0000D006E6F206D617463680A0D00303132D1
:106F0000333435363738396162636465666768697A
:106F10006A6B6C6D6E6F7071727374757677787959
:106F20004142434445464748494A4B4C4D4E4F50D9
:106F30005152535455565758595A21402324255ECF
:106F4000262A28292D5F3D2B5B5D3A3B3C3E2F00D6
:106F500030313233343536373839616263646566CF
:106F60006768696A6B6C6D6E6F7071727374757639
:106F70007778794142434445464748494A4B4C4D0E
:106F80004E4F505152535455565758595A21402339
:106F900024255E262A28292D5F3D2B5B5D3A3B3C4C
:106FA0003E2F00EB7008E709F608DFFA801B8982A4
:106FB0008A831410E70AF593E0A3F608DFFA800944
:106FC000F593E493A3F608DFF9ECFAA9F0EDFB22C0
:106FD00088F0EF60010E4E60F088F0ED60C514108F
:106FE000E7E7CB700E88828C838B93E709F0A3DFF1
:106FF000FA80D61410E72A89828A83F593ECFAE0A6
:10700000A3C8C582C8CCC583CCCBC593CBF0A3C8DD
:10701000C582C8CCC583CCCBC593CBDFE2DEE08094
:10702000AA89828A83F593ECFAE493A3C8C582C83F
:10703000CCC583CCCBC593CBF0A3C8C582C8CCC587
:1070400083CCCBC593CBDFE1DEDF02006FCBEB70EF
:1070500002E72289828A831410E704F593E022F57F
:1070600093E49322F8EB7006E7C828F3E8228982BC
:107070008A831410E708F593E0C828F0E822F59316
:10708000E49322BB000327F722F8EB89828A83145A
:1070900010E706F593E028F022F593E4932822BB4D
:1070A0000002F722BB8000500989828A838B9315E6
:1070B00093F022EF8DF0A4A8F0CF8CF0A428CE8D11
:1070C000F0A42EFE22C5F0F8A3E028F0C5F0F8E504
:1070D00082158270021583E038F022A3F8E0C5F033
:1070E00025F0F0E582158270021583E0C838F0E8DB
:1070F00022EB7007E7F5F009E7192289828A8314E9
:1071000010E708F593E0F5F0A3E022F593E493F59A
:10711000F074019322BB000B09C5F027F7C5F019E5
:1071200037F722F8EB89828A831410E707F593E892
:10713000020070C5F59374019325F0F5F0E49338DF
:1071400022BB0006F709A7F01922BB8000500D8969
:10715000828A838B931593F0E5F0A3F022E88FF0F9
:10716000A4CC8BF0A42CFCE98EF0A42CFC8AF0EDCE
:10717000A42CFCEA8EF0A4CDA8F08BF0A42DCC3882
:1071800025F0FDE98FF0A42CCD35F0FCEB8EF0A4BA
:10719000FEA9F0EB8FF0A4CFC5F02ECD39FEE43C74
:1071A000FCEAA42DCE35F0FDE43CFC2275F0087518
:1071B0008200EF2FFFEE33FECD33CDCC33CCC58232
:1071C00033C5829BED9AEC99E58298400CF582EEEE
:1071D0009BFEED9AFDEC99FC0FD5F0D6E4CEFBE4D6
:1071E000CDFAE4CCF9A88222B800C1B90059BA009E
:1071F0002DEC8BF084CFCECDFCE5F0CBF97818EFF9
:107200002FFFEE33FEED33FDEC33FCEB33FB10D7F9
:1072100003994004EB99FB0FD8E5E4F9FA227818BA
:10722000EF2FFFEE33FEED33FDEC33FCC933C91015
:10723000D7059BE99A4007EC9BFCE99AF90FD8E047
:10724000E4C9FAE4CCFB2275F010EF2FFFEE33FE19
:10725000ED33FDCC33CCC833C810D7079BEC9AE88C
:1072600099400AED9BFDEC9AFCE899F80FD5F0DA0D
:10727000E4CDFBE4CCFAE4C8F922CFF4CFCEF4CECF
:10728000CDF4CDCCF4CC22C3E49FFFE49EFEE49D7C
:10729000FDE49CFC22EB9FF5F0EA9E42F0E99D4262
:1072A000F0EC6480C864809845F022EB9FF5F0EA2A
:1072B0009E42F0E99D42F0E89C45F022E8600FEC28
:1072C000C313FCED13FDEE13FEEF13FFD8F122E81C
:1072D0006010ECA2E713FCED13FDEE13FEEF13FFBD
:1072E000D8F022E8600FEFC333FFEE33FEED33FD3D
:1072F000EC33FCD8F122EB7006E9F80200778089C4
:10730000828A831410E706F5930200778CF59302C6
:10731000007798BB0006E9F8020077A8BB80005010
:107320000C89828A838B9315930200736322740104
:10733000FF3395E0FEFDFCA3A3A3E0CF2FF0E58291
:10734000158270021583E0CE3EF0E5821582700250
:107350001583E0CD3DF0E582158270021583E0CC07
:107360003CF022ECF0A3EDF0A3EEF0A3EFF022A4AA
:107370002582F582E5F03583F58322EB7006E9F886
:10738000020077B489828A831410E706F59302001D
:1073900077BDF593020077E6D093D083D082F8E4EE
:1073A000937012740193700DA3A393F8740193F575
:1073B000828883E4737402936860EFA3A3A380DFE1
:1073C000D093D083D082F8E4937012740193700D3F
:1073D000A3A393F8740193F5828883E473740293F2
:1073E000B5F0067403936860E9A3A3A3A380D88BC8
:1073F000938A838982159353937FE473EB7008E734
:1074000009F60870FA801B89828A831410E70AF54E
:1074100093E0A3F60870FA8009F593E493A3F608C5
:1074200070F9ECFAA9F0EDFB2288F0ED60CE1410B3
:10743000E7F0CB700E88828C83F593E709F0A37098
:10744000FA80DF1410E72889828A83F593ECFAE04A
:10745000A3C8C582C8CCC583CCCBC593CBF0A3C889
:10746000C582C8CCC583CCCBC593CB70E280B5892F
:10747000828A83F593ECFAE493A3C8C582C8CCC58D
:1074800083CCCBC593CBF0A3C8C582C8CCC583CC75
:10749000CBC593CB70E1808CEB700C87F009E608CC
:1074A000B5F019DFF6801589828A831410E711F58B
:1074B00093E0F5F0A3E608B5F002DFF502007549A8
:1074C000F593E493F5F0A3E608B5F07DDFF4807959
:1074D000CB701388828C838B9387F009E493A3B5D8
:1074E000F067DFF580631410E73089828A83F593B3
:1074F000ECFAE0F5F0A3C8C582C8CCC583CCCBC5F7
:1075000093CBE493A3C8C582C8CCC583CCCBC59329
:10751000CBB5F035DFDCDEDA802F89828A83F59304
:10752000ECFAE493F5F0A3C8C582C8CCC583CCCBF4
:10753000C593CBE493A3C8C582C8CCC583CCCBC5C7
:1075400093CBB5F004DFDBDED97FFFB5F0020F226D
:1075500040027F012202007498020074D088F0EF8C
:1075600060010E4E60EEED60EC1410E7ECCB701293
:1075700088828C83F59387F009E0A3B5F0CBDFF622
:1075800080C71410E72F89828A83F593ECFAE0F51F
:10759000F0A3C8C582C8CCC583CCCBC593CBE0A330
:1075A000C8C582C8CCC583CCCBC593CBB5F09ADF18
:1075B000DDDEDB809489828A83F593ECFAE493F52F
:1075C000F0A3C8C582C8CCC583CCCBC593CBE0A300
:1075D000C8C582C8CCC583CCCBC593CBB5F004DF7E
:1075E000DCDEDA02007549EF60010E4E6027EB70B9
:1075F00009E76D602409DFF9801B89828A831410F2
:10760000E718F593E06D7008AB930BAA83A982226B
:10761000A3DFF1DEEFE4F9FAFB22F593E4936D705A
:1076200007E5932481FB80E3A3DFF1DEEF80E6EF43
:107630004E6022EF60010EEDBB0007F709DFFCA9E9
:10764000F022BB8000500E89828A838B931593F0C1
:10765000A3DFFCDEFA22EB701BE9D398500EE92F72
:10766000F9E82FF819E718F6DFFA8025E709F60898
:10767000DFFA801D89828A831410E70AF593E0A35C
:10768000F608DFFA800B89828A83E493A3F608DF89
:10769000F9ECFAA9F0EDFB2288F08E83EF60010E81
:1076A0004E60EE88F0ED60AE1410E7E5CB700E880A
:1076B000828C838B93E709F0A3DFFA80D41410E760
:1076C00066F593D3E998EA9CE5939B505CE82FF824
:1076D000EC3583FCE43BFBE92FF582EA3583F58347
:1076E000E43593F5930582D582090583D583021588
:1076F0009315831582E0C8C582C8CCC583CCCBC5A1
:1077000093CB0582D582090583D583021593158312
:107710001582F0C8C582C8CCC583CCCBC593CBDF5E
:10772000C4DEC202007693802A89828A83ECFAE062
:10773000A3C8C582C8CCC583CCCBC593CBF0A3C8A6
:10774000C582C8CCC583CCCBC593CBDFE2DEE002DB
:1077500000769389828A83F593ECFAE493A3C8C5F3
:1077600082C8CCC583CCCBC593CBF0A3C8C582C897
:10777000CCC583CCCBC593CBDFE1DEDF02007693B3
:10778000E6FC08E6FD08E6FE08E6FF22E0FCA3E0D2
:10779000FDA3E0FEA3E0FF22E493FC740193FD74DB
:1077A0000293FE740393FF22ECF608EDF608EEF662
:1077B00008EFF622E6FB08E6FA08E6F922E0FBA36A
:1077C000E0FAA3E0F922F8E0FBA3A3E0F925F0F04A
:1077D000E582158270021583E0FA38F022EBF0A3FF
:1077E000EAF0A3E9F022E493FB740193FA740293A4
:1077F000F922BB001CD093D0F0D0E0F8D0E0C9FB58
:10780000D0E0FAD0E0CBC8C0E0C0F0C0930200786E
:1078100046BB80005022D093D0F0D0E0F8D0E0C931
:10782000F582D0E0CAF583D0E0CB14C8C0E0C0F048
:10783000C0938893020077DDD093D083D082D0E0CC
:10784000D0E0D0E0E473EBF608EAF608E9F622E5CA
:1078500008248CF582E43427F583759300E005084D
:1078600022900027893027049000278CE475F001CE
:10787000120077C60200704E2020E57F2ED22080B5
:1078800018EF540F2490D43440D4FF30240BEF244D
:10789000BFB41A0050032461FFE509600215090511
:1078A0000CE50C7002050B30271190002789E47558
:1078B000F001120077C6EF0200709F02008A747414
:1078C00003D2278003E4C227F5089000278912001D
:1078D00077DDE4F509F50BF50CE50960087F20126A
:1078E00000789980F4750AFFC221C220C222C22307
:1078F000C225C226C22812007861FF700E3027060A
:107900007F00120078AAAF0CAE0B22B42563C2D55B
:10791000C22412007861FF24D0B40A00501A75F016
:107920000A780930D50508B6FF0106C6A426F62058
:10793000D5047002D22380D824CFB41A00EF5004AB
:10794000C2E5D22402007AD7D22180C4D22080BEE0
:10795000D22280BAD2D580B8D22580B27F20120040
:1079600078992022077401B5090040F01200784F81
:10797000FF12007899020078D9D228D226808F127F
:1079800000784FFB1200784FFA1200784FF94A4BFB
:10799000700679AE7A7B7B8120223DE50960397ED5
:1079A00000E9C0E02EF9EAC0E03400FA1200704E9F
:1079B000F9D0E0FAD0E0C960060EEE650A70E2C2C6
:1079C000D5EBC0E0EAC0E0E9C0E0EE12007B1FD0DA
:1079D000E0F9D0E0FAD0E0FB1200704EFF6096EBC9
:1079E000C0E0EAC0E0E9C0E012007899D0E02401EC
:1079F000F9D0E03400FAD0E0FBE50A0460DAD50AF9
:107A0000D7020079757BFF7A7B791BD22280897936
:107A10001080027908C226C2288008D2D5790A804F
:107A200004790AC2D5E50A047002F50AE4FAFDFEFB
:107A3000FF1200784FFC7B082021161200784FFDC2
:107A40007B1030200C1200784FFE1200784FFF7B25
:107A500020EC3382D592D55013C3E43020069FFF2B
:107A6000E49EFEE42021039DFDE49CFCE4CBF8C2EF
:107A700021EC700CCFCECDCCE824F8F870F3801751
:107A8000C3EF33FFEE33FEED33FDEC33FCEB33FBA2
:107A9000994002FB0FD8E9EB302105F8D0E0C4484B
:107AA000B221C0E00AEC4D4E4F78207B0070C2EA54
:107AB000B50A0040BCC0E012007B21D0F0D0E0202D
:107AC0002104C4C0E0C4B221C0F012007882D0F01A
:107AD000D5F0EA020078D912007398797F537A0FB3
:107AE00058794C4C7948427A134F7A1B447A1B4997
:107AF0007962437A21557A05467A05457A05477BAE
:107B0000CB5079502D79542E797B2B795823797964
:107B1000207BB72A790E48000079713F3F3F0079FA
:107B20000AA2D5202314302509B910020404B9088B
:107B30000104A2D520260250010420226D9222B514
:107B400009005036C0E07F2030231A7F30A2227215
:107B5000267225501012007B7AC222C226C225C28C
:107B6000287F308010302503E9C0E012007899307A
:107B70002503D0E0F9D0E0B509CA3025197F30B926
:107B8000100D120078997F583024077F788003B950
:107B90000804120078993022067F2D020078997F20
:107BA000202028F77F2B2026F222922280CC286EDC
:107BB000756C6C2900D2211200784F3021F7C22158
:107BC000780930D50108F60200790E1200784F7F4F
:107BD0004960087F4310E7027F5814C0E0EF1200AD
:107BE000788A743A1200788AD0E0600DC0E0C4123E
:107BF000007882D0E012007882D223750904020056
:107C00007A0F412EB000412C0F00412C1000412C66
:107C10000D00412C0E00412C1100412C0C00422A79
:107C2000640000422A5F0000412A6600412EBB002A
:107C3000422DEB0000442D8F00000000422D9500E6
:107C400001412D9419412D93014213550000421317
:107C500065000042136300004113590042135100B4
:107C60000042135B000041176B0042135D000042AD
:107C700013570000421369000042136700004113CC
:107C80005A00421353000042135F000041176C007A
:107C9000421361000041176D0042177A000042173D
:107CA000FC0000421AD600004218290000421AC9FE
:107CB00000006029180050305F302C50305F312CAC
:107CC00050305F322C50305F332C50305F342C50AA
:107CD000305F352C50305F362C50305F372C0060D1
:107CE00029182B50315F302C50315F312C50315FCF
:107CF000322C50315F332C50315F342C50315F3592
:107D00002C50315F362C50315F372C0060291854CD
:107D100050325F302C50325F312C50325F322C5059
:107D2000325F332C50325F342C50325F352C50325E
:107D30005F362C50325F372C00602A187D50335F3D
:107D4000302C50335F312C50335F322C50335F3343
:107D50002C50335F342C50335F352C50335F362C2E
:107D600050335F372C000041291B0141291C02417F
:107D7000291D0441291E0841291F104129202041A5
:107D800029214041292280412923014129240241FE
:107D90002925044129260841292710412928204165
:107DA00029294041292A8041134F00410F67004192
:107DB000135000410F1E0041134E004110080046B1
:107DC000233E00123456789A4623A4000000000097
:107DD0000041239C004302D60102DB4300A30102C1
:107DE000DB4300940102DB4823354153495858498D
:107DF0005341430E940108CE4C1ADD53696D7465EE
:107E00006B6B65746D6953412ED301411FA0004215
:107E10001F700000411F7200441FA10000000046B7
:107E20001F9A0000000000004129E1004129E20101
:107E30004129DC004229DA00004429D60000000371
:107E40004429DD0000000041211A5A431FA581602A
:107E50007F43209300000042211B0000432120812A
:107E6000608343211D816093411FA8004420960038
:107E70000000006054203F8160A28160AA000000E1
:107E80008160B38160D28160D782BB0A8160D98171
:107E900060F9816100836D0A81610381612F8161D5
:107EA0003E834C1A81614100000000000000000088
:107EB00000000081616E0000008362D881617381DF
:107EC0006192816198823C6B81619B41270A0041EC
:107ED000270F00412709004127080042270400001E
:107EE0004227300000422706000044270B00000014
:107EF00000502720000000000000000000000000EB
:107F000000000000502710000000000000000000EA
:107F10000000000000000000482BD300000000001B
:107F2000000000F100000000F4000000FE7586155E
:107F30002D202020200048617264776172652069DD
:107F40006E697420202020202020202020203A202C
:107F5000706173730A0D00495020203A2025627524
:107F60002E2562752E2562752E2562750A0D00304C
:107F70000031003020003120007543204669726DC9
:107F80007761726520504220202020202020202070
:107F9000203A200025303262782D00253032627878
:107FA00000203A2025630A0D0046504741204669CB
:107FB000726D7761726520504E2020202020202095
:107FC000203A2000446562756720526F7574696EAF
:107FD0006573202020202020202020203A200064CB
:107FE000697361626C65640A0D00656E61626C653F
:107FF000640A0D005472616E736D6974204D6F6474
:108000006520202020202020202020203A200053FE
:1080100065727665720A0D00436C69656E740A0DAF
:10802000002A2A2A2A2A2A2A2A2A2A2A2A2A2A2ADA
:108030002A2A2A2A2A2A2A2A2A2A2A2A2A2A2A2AA0
:108040002A2A2A2A2A2A2A2A2A2A2A2A2A2A2A2A90
:108050002A2A2A2A2A2A0A0D0045746865726E6542
:1080600074204C696E6B205370656564203D2062FE
:1080700070730A0D00444843502020202020696E70
:10808000697420202020202020202020203A200059
:10809000706173730A0D002A2A4552524F522A2AE0
:1080A0000A0D00444843502041737369676E65644C
:1080B000204950202020203A20004448435020727C
:1080C0006573706F6E7365202D2D200020666169C9
:1080D0006C210A0D00496E737472756D656E7420A3
:1080E00050617274204E756D62657220203A2025B1
:1080F000730A0D0031305F39313830004669726DD6
:1081000077617265204C617374205265766973657E
:10811000642020203A2025732025730A0D004A751B
:108120006C20303120323032310031363A32373A39
:1081300031330045746865726E6574204C696272F3
:10814000617279205665722E2020203A2025730A0C
:108150000D00332E312E323030002A2A2A2A2A2AC4
:108160002A2A2A2A2A2A2A2A2A2A2A2A2A2A2A2A6F
:108170002A2A2A2A2A2A2A2A2A2A2A2A2A2A2A2A5F
:108180002A2A2A2A2A2A2A2A2A2A2A2A2A2A2A2A4F
:108190002A2A2A0A0D00554152542D3020202069E8
:1081A0006E697420202020202020202020203A20CA
:1081B000706173732020200062617564203A20256D
:1081C00030326278200A0D00554152542D31202062
:1081D00020696E697420202020202020202020206B
:1081E0003A20706173730A0D005265616420636FF9
:1081F0006E66696775726174696F6E20646174611F
:10820000203A2000526561642064656661756C7473
:1082100020636F6E66696775726174696F6E206442
:108220006174612E200A0D0031302D393138305FF4
:1082300030315F3158580031323334006661696C37
:10824000656421202877726F6E6720636865636BB1
:1082500073756D290A0D00496E76616C696420633F
:108260006F6E66696775726174696F6E20646174A0
:1082700061210A0D00706173730A0D0064617461FD
:108280002073617665640A0D004661696C6564203F
:10829000746F2070726F6772616D20436F6E6669D4
:1082A00067726174696F6E204461746121210A0DE7
:1082B000002020446576696365204E616D6520204D
:1082C0002020202020202020203A20002563000AA2
:1082D0000D0020204D41432041646472657373207A
:1082E000202020202020202020203A20002530326D
:1082F0006278200020204E6574776F726B20536582
:108300007474696E67732020202020203A20002595
:10831000303464780D0A0020202020536572766581
:10832000722F436C69656E74202020202020203A33
:1083300020436C69656E740020202020536572769E
:1083400065722F436C69656E7420202020202020E8
:108350003A205365727665720020202020444843FD
:1083600050202020202020202020202020202020DD
:10837000203A20456E61626C656400202020204414
:108380004843502020202020202020202020202072
:108390002020203A2044697361626C6564002020CB
:1083A0002020554450202020202020202020202044
:1083B0002020202020203A204F6E00202020205511
:1083C0004450202020202020202020202020202059
:1083D0002020203A204F66660020202020202020E8
:1083E0002020205443502020202020202020203AEC
:1083F000204F6E0020202020202020202020202020
:108400002020205443502020203A204F6666002030
:1084100020202042726F6164436173742020202009
:10842000202020202020203A204F6E0020202020D5
:1084300042726F61644361737420202020202020E9
:10844000202020203A204F6666002020446576696F
:108450006365205365727665722049502020202084
:1084600020203A20002562752E002562750020002C
:10847000506F727420203A2000256475282530340E
:10848000647829002020486F7374205365727665E4
:108490007220495020202020202020203A20003126
:1084A0003230304032354D487A003234303040324C
:1084B000354D487A00343830304032354D487A00F6
:1084C000393630304032354D487A0031393230302B
:1084D0004032354D487A0032383830304032354DF0
:1084E000487A0033383430304032354D487A0035E0
:1084F000373630304032354D487A003736383030F4
:108500004032354D487A0039343735304032354DB8
:10851000487A003131353230304032354D487A00BA
:10852000313230304035304D487A003234303040CE
:1085300035304D487A00343830304035304D487A47
:1085400000393630304035304D487A0031393230DC
:10855000304035304D487A00323838303040353090
:108560004D487A0033383430304035304D487A0049
:1085700035373630304035304D487A003736383070
:10858000304035304D487A00393437353040353059
:108590004D487A003131353230304035304D487AEF
:1085A0000031323030403130304D487A0032343092
:1085B00030403130304D487A00343830304031303E
:1085C000304D487A0039363030403130304D487ABD
:1085D000003139323030403130304D487A00323855
:1085E000383030403130304D487A00333834303014
:1085F000403130304D487A003537363030403130F8
:10860000304D487A003736383030403130304D48C0
:108610007A003934373530403130304D487A0031C6
:108620003135323030403130304D487A0020203101
:108630003230304032354D487A000A0D002D2D522F
:108640007848656164202564752C205278546169EE
:108650006C202564752C205278436E742025647537
:108660002D2D0A0D000A0D2530346478203A0020A3
:108670002530326278002D2D5278486561642025BE
:10868000303464782C2052785461696C2025303461
:1086900064782C205278436E74202564752D2D202B
:1086A000000A0D2A2A2A2A2A2A2A2A2A2A2A2A2A91
:1086B0002A2A2A2A2A2A2A2A2A2A2A2A2A2A2A2A1A
:1086C0002A2A2A2A2A2A2A2A2A2A2A2A2A2A2A2A0A
:1086D0002A2A2A2A2A2A2A2A2A2A2A2A2A2A2A2AFA
:1086E0002A2A2A2A2A2A2A2A2A2A2A0A0D0055440C
:1086F0005020686F737420636C69656E7420706FAE
:108700007274202020203A20002A2A4552524F52CB
:108710002120554E41424C4520544F204352454163
:10872000544520534F434B45542A2A0A0D002564D3
:10873000750A0D0055445020646174612000706F0B
:10874000727420202020202020202020203A202A5F
:108750002A42494E44494E47204552524F52212AFF
:108760002A0A0D0073657276657220706F7274202C
:108770002020203A202564750A0D00736572766505
:108780007220706F7274202020203A202A204249E3
:108790004E44494E47204552524F5221202A0A0D3D
:1087A00000636C69656E7420706F727420202020E5
:1087B00020203A202564750A0D004E657720554427
:1087C0005020636F6E6E656374696F6E203A206926
:1087D000643D2562752C2072656D6F7465506F72F3
:1087E000743D2564752C20736F636B65743D256241
:1087F000750A0D0054435049505F556470436C6FC7
:1088000073652869643D2562752C20736F636B6501
:10881000743D256275290A0D000D2020202020209E
:108820002020202020202020202020202020200D5B
:1088300000696E76616C6964206F702D636F64658A
:10884000203A2025303262780A0D0075EBAA75EBCC
:1088500055759D02787FE4F6D8FD900000007F00FA
:108860007E807D01E4F0A3DFFCDEFADDF8750D66A5
:10887000750ED8758187020088A40201C755E4935C
:10888000A3F85407240CC8C333C4540F4420C8832E
:108890004004F456800146F6DFE4800C010204082F
:1088A0001020408090007C02E47E019360CCA3FF06
:1088B000543F30E509541FFEE493A360010ECF54EA
:1088C000E0B4E026E493FBA3E493FAA3E493F9A3D2
:1088D000E493C083C0821200709FD082D083A3092A
:1088E000E970010ADFEADEE880BE54C025E0602BB3
:1088F000408CE493A3FAE493A3F8E493A3C8C5825D
:10890000C8CAC583CA759300F0759300A3C8C58211
:10891000C8CAC583CADFE3DEE1808DE493A3F8E42F
:1089200093A34003F68001F208DFF4020088A85503
:10893000445020756E696361737420706F72742087
:10894000202020202020203A2000202A2A42494EA0
:1089500044494E47204552524F52212A2A0A0D00BF
:108960002564750A0D002A2042494E44494E47208D
:108970004552524F5221202A0A0D006256616C69FD
:1089800064526571203D2054525545202626200012
:108990006644656275674D6F6465203D204F4E20CB
:1089A000262620004C656E677468203D20476F6F57
:1089B000640A0D004C656E677468203D2042616456
:1089C0000A0D005544502062726F616463617374D4
:1089D00020706F72742020202020203A20002A2A44
:1089E00042494E44494E47204552524F52212A2A6D
:1089F0000A0D002564750A0D002A2042494E44499B
:108A00004E47204552524F5221202A0A0D00204D38
:108A10004143204241440A0D002025303262780053
:108A20002025303262780A0D00204D414320474F07
:108A30004F44200000000000000000000000000083
:108A40000000000000000000000D436F6E6E6563C3
:108A500074696F6E20696E61637469766500444560
:108A600041444D414E636E74203D202564752025A0
:108A700062780D00EFB40A08740D12008A80740A3F
:108A8000309811A899B8130CC2983098FDA899C2D3
:108A900098B811F63099FDC299F59922556E646522
:108AA00066696E6564205346522041646472657342
:108AB0007320210A0010290D12006047BF0D027FAC
:108AC0000A02008A7490002EDBE0FF22E4FFFE120F
:108AD00000704E600C0FEF70010E09E970F10A8012
:108AE000EE22000000000000000090002D38EFF0A2
:108AF000900002D9E0FEA3E0FFAA06A9077B01903F
:108B0000002D39EBF0A3EAF0A3E9F090000F67E045
:108B1000FFEF60387B017A0279F1900002D6EBF02A
:108B2000A3EAF0A3E9F07B017A0279F1900000A3B7
:108B3000EBF0A3EAF0A3E9F07B017A0279F190006F
:108B40000094EBF0A3EAF0A3E9F0807790000F1E09
:108B5000E0FFEF60387B017A0279E9900002D6EB02
:108B6000F0A3EAF0A3E9F07B017A0279E990000032
:108B7000A3EBF0A3EAF0A3E9F07B017A0279E99094
:108B8000000094EBF0A3EAF0A3E9F080367B017AD1
:108B90000279DB900002D6EBF0A3EAF0A3E9F07BC8
:108BA000017A0279DB900000A3EBF0A3EAF0A3E9DD
:108BB000F07B017A0279DB90000094EBF0A3EAF0FD
:108BC000A3E9F090002D38E0FFEF6402600301920A
:108BD000649000134FE0FF7E0090000F1EE0FD7CCC
:108BE00000ED2FFFEC3EFE74032FF974033EFA7B79
:108BF0000190000099EBF0A3EAF0A3E9F078810678
:108C0000E6FFEF7013788006E6FFEF700B787F06C3
:108C1000E6FFEF7003787E0678867600087600908F
:108C2000002D39E0FBA3E0FAA3E0F9E92419F9EA01
:108C30003400FA1200704EFFEF6407601E90002DA2
:108C400039E0FBA3E0FAA3E0F9E92419F9EA3400DA
:108C5000FA1200704EFFEF6405707C90002D39E031
:108C6000FBA3E0FAA3E0F9E9241AF9EA3400FA7464
:108C7000011200708390002D39E0FBA3E0FAA3E01D
:108C8000F9E9241AF9EA3400FA1200704EFFEF6491
:108C900078600301C7FA90002D39E0FBA3E0FAA346
:108CA000E0F9E92419F9EA3400FAE41200709F7837
:108CB00074762012010000900002D6E0FBA3E0FAD7
:108CC000A3E0F9E92421F9EA3400FA7414120070DF
:108CD0009F01C2F601C7FA90002D39E0FBA3E0FA2C
:108CE000A3E0F9E92419F9EA3400FA1200704EFF02
:108CF000EF700301C7FA90002D39E0FBA3E0FAA35F
:108D0000E0F9E92410F9EA3400FA120070F1FFAE3C
:108D1000F0EF4E7003018F1C90002D39E0FBA3E0B3
:108D2000FAA3E0F9E9241AF9EA3400FA74FF120010
:108D30007064FFEF600301C7FA90002D39E0FBA3D8
:108D4000E0FAA3E0F9E9241BF9EA3400FA12007012
:108D50004EFFEF6408605990002D39E0FBA3E0FA64
:108D6000A3E0F9E92419F9EA3400FA1200704EFF81
:108D7000EF6402601E90002D39E0FBA3E0FAA3E04F
:108D8000F9E92419F9EA3400FA1200704EFFEF6491
:108D900001705B90002D39E0FBA3E0FAA3E0F9E954
:108DA000241BF9EA3400FA1200704EFFEFB4033EC0
:108DB00090002D39E0FBA3E0FAA3E0F9E92419F9CA
:108DC000EA3400FAE41200709F7874768012010091
:108DD00000900002D6E0FBA3E0FAA3E0F9E9242129
:108DE000F9EA3400FA74141200709F01C2F6900080
:108DF0002D39E0FBA3E0FAA3E0F9E9241BF9EA34FA
:108E000000FA1200704EFFEFD3940440047F0480F8
:108E10001990002D39E0FBA3E0FAA3E0F9E9241B47
:108E2000F9EA3400FA1200704EFF7403A8070880B4
:108E300002C333D8FCFF90002D39E0FBA3E0FAA376
:108E4000E0F9E9241AF9EA3400FAEF1200709F9071
:108E5000002D39E0FBA3E0FAA3E0F9E9241BF9EACD
:108E60003400FA74011200708390002D39E0FBA3E6
:108E7000E0FAA3E0F9E92419F9EA3400FA120070E3
:108E80004EFFEF540FFFEF12007398AB96018EA4C4
:108E9000028EC003BA4A04BA4A06BA4A080000C79A
:108EA000FA01AB96900002D6E0FBA3E0FAA3E0F94A
:108EB000E92421F9EA3400FAE41200709F01ABB012
:108EC00078867600087600788476000876007874D4
:108ED000760412010000900002D9E0FEA3E0FFAA90
:108EE00006A9077B0190002D39EBF0A3EAF0A3E976
:108EF000F07884E6FE08E6FF90002D39E0FBA3E061
:108F0000FAA3E0F9E92410F9EA3400FAEE8FF0123E
:108F100000714101BFC901BA4A01C7FA90002D3959
:108F2000E0FBA3E0FAA3E0F9E92419F9EA3400FA36
:108F30001200704EFFEF540FFFEF6403600301C790
:108F4000FA90002D39E0FBA3E0FAA3E0F9E9241E32
:108F5000F9EA3400FA1200704EFFEF70030191F548
:108F600090002D39E0FBA3E0FAA3E0F9E92420F911
:108F7000EA3400FAE475F00112007115AFF0FEEF6B
:108F800064E07003EE6401600301C7FA90002D39BC
:108F9000E0FBA3E0FAA3E0F9E9241FF9EA3400FAC0
:108FA0001200704EFFEFC3940440030191B2900091
:108FB0002D39E0FBA3E0FAA3E0F9E9241FF9EA3434
:108FC00000FA74011200708390002D39E0FBA3E0D9
:108FD000FAA3E0F9E92420F9EA3400FAE475F00094
:108FE00012007141900002D6E0FBA3E0FAA3E0F981
:108FF000E92421F9EA3400FA74101200709F78868F
:109000007600087629900002D6E0FBA3E0FAA3E000
:10901000F9E92420F9EA3400FA74501200709F90A4
:10902000002D39E0FBA3E0FAA3E0F9E9240CF9EA0A
:109030003400FA1200704EFF900002D6E0FBA3E06D
:10904000FAA3E0F9E92418F9EA3400FAEF12007003
:109050009F90002D39E0FBA3E0FAA3E0F9E9240D8D
:10906000F9EA3400FA1200704EFF900002D6E0FBDD
:10907000A3E0FAA3E0F9E92419F9EA3400FAEF12BF
:1090800000709F90002D39E0FBA3E0FAA3E0F9E91E
:10909000240EF9EA3400FA1200704EFF900002D656
:1090A000E0FBA3E0FAA3E0F9E9241AF9EA3400FAB4
:1090B000EF1200709F90002D39E0FBA3E0FAA3E0CF
:1090C000F9E9240FF9EA3400FA1200704EFFC3EFF9
:1090D0009401FF900002D6E0FBA3E0FAA3E0F9E9D7
:1090E000241BF9EA3400FAEF1200709FFFEF64FFCF
:1090F000600301C3DF90002D39E0FBA3E0FAA3E099
:10910000F9E9240EF9EA3400FA1200704EFFC3EFB9
:109110009401FF900002D6E0FBA3E0FAA3E0F9E996
:10912000241AF9EA3400FAEF1200709FFFEF64FF8F
:10913000600301C3DF90002D39E0FBA3E0FAA3E058
:10914000F9E9240DF9EA3400FA1200704EFFC3EF7A
:109150009401FF900002D6E0FBA3E0FAA3E0F9E956
:109160002419F9EA3400FAEF1200709FFFEF64FF50
:10917000600301C3DF90002D39E0FBA3E0FAA3E018
:10918000F9E9240CF9EA3400FA1200704EFFC3EF3B
:109190009401FF900002D6E0FBA3E0FAA3E0F9E916
:1091A0002418F9EA3400FAEF1200709F01C3DF01BE
:1091B000C7FA90002D39E0FBA3E0FAA3E0F9E92417
:1091C00020F9EA3400FAE475F000120071419000D1
:1091D0002D39E0FBA3E0FAA3E0F9E9241FF9EA3412
:1091E00000FAE41200709F78747608120100000102
:1091F000BDC301C7FA90002D39E0FBA3E0FAA3E05C
:10920000F9E92420F9EA3400FAE475F0011200715A
:1092100015AFF0FEEF64807003EE6407600301C7D2
:10922000FA90002D39E0FBA3E0FAA3E0F9E924204D
:10923000F9EA3400FAE475F0001200714190002D53
:1092400039E0FBA3E0FAA3E0F9E9241FF9EA3400CE
:10925000FAE41200709F787476081201000001BDD4
:10926000C301C7FA90002D38E0FFEFB4033390003C
:109270000097E0FEA3E0FF8F828E83759300E58266
:109280002404F582E5833400F583759300E0FEA3A2
:10929000E0FFEF4E700301C7FA019C76800301C71F
:1092A000FA90002D38E0FFEF6404600301932F90E3
:1092B000002D39E0FBA3E0FAA3E0F9E92419F9EA6B
:1092C0003400FA1200704EFFEF540FFFEF120073DC
:1092D0009892D802000092F4900002D6E0FBA3E03E
:1092E000FAA3E0F9E92421F9EA3400FAE412007063
:1092F0009F01ABB0900008C7E0FFEF20E20301BD83
:10930000C37884E6FE08E6FF90002D39E0FBA3E079
:10931000FAA3E0F9E92410F9EA3400FAEE8FF0122A
:1093200000714101BFC901C7FA01BDC301C7FA906D
:1093300000134FE0FF7E0090000F1EE0FD7C00ED6B
:109340002FFFEC3EFE74032FF974033EFA7B01906D
:10935000000099EBF0A3EAF0A3E9F07886E6FE08B6
:10936000E6FF9000134FE0FD7C0090000F1EE0FB35
:109370007A00EB2DFDEA3CFCC3EF9DFFEE9CFE78EE
:1093800086A60608A607900002D6E0FBA3E0FAA393
:10939000E0F91200704EFFEF6445600301C7FA90D8
:1093A0000002D6E0FBA3E0FAA3E0F9E92402F9EA1F
:1093B0003400FA1200704EFFEFFD7C007886E6FE66
:1093C00008E6FFEEFF7E00EF6D7002EE6C603590F8
:1093D0000002D6E0FBA3E0FAA3E0F9E92402F9EAEF
:1093E0003400FA1200704EFF7E00EF7F00FE788698
:1093F000E6FC08E6FD7C00EC4EFEED4FFF7886A60D
:109400000608A607900002D6E0FBA3E0FAA3E0F965
:10941000E92403F9EA3400FA1200704EFF7E007866
:1094200086E6FC08E6FD7C00ED6F7002EC6E6031B4
:10943000900002D6E0FBA3E0FAA3E0F9E92403F9E7
:10944000EA3400FA1200704EFF7E007886E6FC08CF
:10945000E6FD7D00EC4EFEED4FFF7886A60608A6E1
:1094600007900002D6E0FBA3E0FAA3E0F9E92406A6
:10947000F9EA3400FA1200704EFFEF543FFFEF603C
:109480000301C7FA900002D6E0FBA3E0FAA3E0F9DB
:10949000E92407F9EA3400FA1200704EFFEF600386
:1094A00001C7FA90000F1EE0FFEF700301958F785F
:1094B00053E6FE08E6FFEF4E700301958F90000221
:1094C000D6E0FBA3E0FAA3E0F9E92410F9EA3400BE
:1094D000FA120070F1FFAEF0C3EE94E04003019584
:1094E0008F900002D6E0FBA3E0FAA3E0F9E9241094
:1094F000F9EA3400FA120070F1FFAEF07853E6FC9E
:1095000008E6FDEF6D7002EE6C600301C7FA900093
:1095100002D6E0FBA3E0FAA3E0F9E92412F9EA3469
:1095200000FA120070F1FFAEF07855E6FC08E6FD97
:10953000EF6D7002EE6C6057900002D6E0FBA3E086
:10954000FAA3E0F9E92412F9EA3400FA120070F102
:10955000FFAEF07E00EF64FF4E600301C7FA90009B
:1095600002D6E0FBA3E0FAA3E0F9E92412F9EA3419
:1095700000FA120070F1FFAEF07F007855E6FC08AB
:10958000E6FD7D00EF6D7002EE6C600301C7FA909E
:109590000002D6E0FBA3E0FAA3E0F9E92409F9EA26
:1095A0003400FA1200704EFFEF64067003019E69EA
:1095B000900002D6E0FBA3E0FAA3E0F9E92409F960
:1095C000EA3400FA1200704EFFEF64117003019745
:1095D00065900002D6E0FBA3E0FAA3E0F9E92409D4
:1095E000F9EA3400FA1200704EFFEF6401600301E3
:1095F000C7FA90000094E0FBA3E0FAA3E0F9E924A5
:1096000014F9EA3400FA1200704EFFEF6408604764
:1096100090000094E0FBA3E0FAA3E0F9E92414F938
:10962000EA3400FA1200704EFFEF600301C7FA90AF
:10963000000F1BE0FBA3E0FAA3E0F9EA494B70033B
:1096400001C7FA90000F1BE0FBA3E0FAA3E0F912B8
:109650000073EF01C7FA2290000094E0FBA3E0FA48
:10966000A3E0F9E92414F9EA3400FAE41200709F47
:10967000900002D6E0FBA3E0FAA3E0F9E92410F998
:10968000EA3400FA120070F1FFAEF07872A6060814
:10969000A607900002D6E0FBA3E0FAA3E0F9E924D4
:1096A0000CF9EA3400FA120070F1FFAEF0900002FB
:1096B000D6E0FBA3E0FAA3E0F9E92410F9EA3400CC
:1096C000FAEE8FF0120071417872E6FE08E6FF9024
:1096D0000002D6E0FBA3E0FAA3E0F9E9240CF9EAE2
:1096E0003400FAEE8FF012007141900002D6E0FBD8
:1096F000A3E0FAA3E0F9E92412F9EA3400FA12002F
:1097000070F1FFAEF07872A60608A607900002D6A8
:10971000E0FBA3E0FAA3E0F9E9240EF9EA3400FA49
:10972000120070F1FFAEF0900002D6E0FBA3E0FA69
:10973000A3E0F9E92412F9EA3400FAEE8FF01200FE
:1097400071417872E6FE08E6FF900002D6E0FBA3C6
:10975000E0FAA3E0F9E9240EF9EA3400FAEE8FF01A
:109760001200714122787476007E007F0190000023
:1097700097EEF0A3EFF07E007F9190000097E0FC61
:10978000A3E0FDC3ED9FEC9E4003019A7D90000095
:1097900097E0FEA3E0FF8F828E83759300E582241D
:1097A00004F582E5833400F583759300E0FEA3E0C1
:1097B000FFEF4E7003019A6A900000A3E0FBA3E064
:1097C000FAA3E0F9E92416F9EA3400FA120070F17C
:1097D000FFAEF090000097E0FCA3E0FD8D828C834B
:1097E000759300E5822404F582E5833400F58375E2
:1097F0009300E0FCA3E0FDEF6D7002EE6C600301EE
:109800009A6A90000097E0FEA3E0FF8F828E837536
:109810009300E5822406F582E5833400F583759391
:1098200000E0FEA3E0FFEF4E604A900000A3E0FBE3
:10983000A3E0FAA3E0F9E92414F9EA3400FA1200EB
:1098400070F1FFAEF090000097E0FCA3E0FD8D8288
:109850008C83759300E5822406F582E5833400F558
:1098600083759300E0FCA3E0FDEF6D7002EE6C6089
:1098700003019A6A90000097E0FEA3E0FF8F828EBA
:1098800083759300E0FEA3E0FFEF4E701E90000092
:1098900097E0FEA3E0FF8F828E83759300A3A3E081
:1098A000FEA3E0FFEF4E700301996190000097E086
:1098B000FEA3E0FF8F828E83759300E0FEA3E0FF9E
:1098C000EFB4FF25EEB4FF2190000097E0FEA3E087
:1098D000FF8F828E83759300A3A3E0FEA3E0FFEFCA
:1098E00064FF7003EE64FF6078900002D6E0FBA393
:1098F000E0FAA3E0F9E9240CF9EA3400FA12007066
:10990000F1FFAEF090000097E0FCA3E0FD8D828CAB
:1099100083759300E0FCA3E0FDEF6D7002EE6C60D8
:1099200003019A6A900002D6E0FBA3E0FAA3E0F9F3
:10993000E9240EF9EA3400FA120070F1FFAEF0905B
:10994000000097E0FCA3E0FD8D828C83759300A35B
:10995000A3E0FCA3E0FDEF6D7002EE6C6003019AE2
:109960006A90000097E0FEA3E0FF8F828E837593DC
:1099700000E5822406F582E5833400F583759300C3
:10998000E0FEA3E0FFEF4E7042900000A3E0FBA3D7
:10999000E0FAA3E0F9E92414F9EA3400FA120070BD
:1099A000F1FFAEF090000097E0FCA3E0FD8D828C0B
:1099B00083759300E5822406F582E5833400F58300
:1099C000759300EEF0A3EFF0019C2890000097E063
:1099D000FEA3E0FF8F828E83759300E0FEA3E0FF7D
:1099E000EF4E6003019C2890000097E0FEA3E0FF8B
:1099F0008F828E83759300A3A3E0FEA3E0FFEF4E5A
:109A00006003019C28900002D6E0FBA3E0FAA3E0EB
:109A1000F9E9240CF9EA3400FA120070F1FFAEF013
:109A200090000097E0FCA3E0FD8D828C837593008D
:109A3000EEF0A3EFF0900002D6E0FBA3E0FAA3E083
:109A4000F9E9240EF9EA3400FA120070F1FFAEF0E1
:109A500090000097E0FCA3E0FD8D828C837593005D
:109A6000A3A3EEF0A3EFF0019C2890000098E0245F
:109A700009F090000097E03400F001977678837643
:109A8000007883E6FFEFC3940C400301C7FA90000F
:109A900000A3E0FBA3E0FAA3E0F9E92416F9EA3415
:109AA00000FA120070F1FFAEF07883E6FDED25E0DC
:109AB0002459F8E6FC08E6FDEF6D7002EE6C6008D4
:109AC00078830680BC01C7FA788376007883E6FF46
:109AD000EFC394104003019C1C7883E6FFEF75F000
:109AE00009A42405F582E43400F583759300E0FEB3
:109AF000A3E0FFEF4E6003019C16900000A3E0FB83
:109B0000A3E0FAA3E0F9E92416F9EA3400FA120016
:109B100070F1FFAEF07883E6FDED75F009A4240541
:109B2000F582E43400F583759300EEF0A3EFF09036
:109B30000000A3E0FBA3E0FAA3E0F9E92414F9EAAA
:109B40003400FA120070F1FFAEF07883E6FDED7597
:109B5000F009A42407F582E43400F583759300EE40
:109B6000F0A3EFF0900002D6E0FBA3E0FAA3E0F947
:109B7000E9240CF9EA3400FA120070F1FFAEF07833
:109B800083E6FDED75F009A42401F582E43400F5C7
:109B900083759300EEF0A3EFF0900002D6E0FBA3F4
:109BA000E0FAA3E0F9E9240EF9EA3400FA120070B1
:109BB000F1FFAEF07883E6FDED75F009A42403F51E
:109BC00082E43400F583759300EEF0A3EFF0788320
:109BD000E6FFEF75F009A42409F582E43400F5836B
:109BE0007593007410F07883E6FFEF75F009A424F4
:109BF00001F582E43400F583759300AF82AE839063
:109C0000000097EEF0A3EFF07874E6FFEF4440FF1A
:109C10007874A6078006788306019ACC7883E6FFDD
:109C2000EF6410700301C7FA788774E426F618749D
:109C3000FF36F69000134FE0FF7E0090000F1EE00D
:109C4000FD7C00ED2FFFEC3EFE74F72FF974023E11
:109C5000FA7B0190000099EBF0A3EAF0A3E9F07819
:109C600074E6FFEF4402FF7874A607788476000854
:109C70007600120151FF7884E6FE08E6FFEF4E7091
:109C80000301C7FA7884E6FE08E6FFEF241CFFEE26
:109C90003400FE7886A60608A6077886E6FE08E663
:109CA000FFEEFF7E00900002D6E0FBA3E0FAA3E007
:109CB000F9E92402F9EA3400FAEF1200709F78867D
:109CC000E6FE08E6FFEF54FFFF900002D6E0FBA39C
:109CD000E0FAA3E0F9E92403F9EA3400FAEF12000C
:109CE000709F900002D6E0FBA3E0FAA3E0F9E9241C
:109CF00009F9EA3400FA74111200709F7884E6FEC4
:109D000008E6FFEF2408FFEE3400FE900000A3E019
:109D1000FBA3E0FAA3E0F9E92418F9EA3400FAEE2B
:109D20008FF012007141900000A3E0FBA3E0FAA3C2
:109D3000E0F9E9241AF9EA3400FAE475F0001200B7
:109D4000714190000097E0FEA3E0FF8F828E837543
:109D50009300E5822404F582E5833400F58375934E
:109D600000E0FEA3E0FF900002D6E0FBA3E0FAA330
:109D7000E0F9E92414F9EA3400FAEE8FF0120071E8
:109D80004190000097E0FEA3E0FF8F828E837593E1
:109D900000E5822406F582E5833400F5837593009F
:109DA000E0FEA3E0FF900002D6E0FBA3E0FAA3E010
:109DB000F9E92416F9EA3400FAEE8FF01200714145
:109DC0007853E6FE08E6FF900002D6E0FBA3E0FA37
:109DD000A3E0F9E9240CF9EA3400FAEE8FF012005E
:109DE00071417855E6FE08E6FF900002D6E0FBA33D
:109DF000E0FAA3E0F9E9240EF9EA3400FAEE8FF074
:109E00001200714190000097E0FEA3E0FF8F828E68
:109E100083759300E0FEA3E0FF900002D6E0FBA371
:109E2000E0FAA3E0F9E92410F9EA3400FAEE8FF041
:109E30001200714190000097E0FEA3E0FF8F828E38
:109E400083759300A3A3E0FEA3E0FF900002D6E099
:109E5000FBA3E0FAA3E0F9E92412F9EA3400FAEEF0
:109E60008FF01200714101C6F07B017A0079A69053
:109E7000002D39EBF0A3EAF0A3E9F07B017A027937
:109E8000D6C003C002C00190002D39E0FBA3E0FA68
:109E9000A3E0F9C3D082D083D0E0E99582EA95832C
:109EA000400301A01A90002D39E0FBA3E0FAA3E0E3
:109EB000F9E92419F9EA3400FA1200704EFFEF7044
:109EC0000301A00B90002D39E0FBA3E0FAA3E0F919
:109ED000E92404F9EA3400FA120070F1FFAEF090C0
:109EE0000002D6E0FBA3E0FAA3E0F9E92416F9EAC0
:109EF0003400FA120070F1FDACF0ED6F7002EC6E00
:109F0000600301A00B90002D39E0FBA3E0FAA3E071
:109F1000F9E92406F9EA3400FA120070F1FFAEF014
:109F2000900002D6E0FBA3E0FAA3E0F9E92414F9DB
:109F3000EA3400FA120070F1FDACF0ED6F7002EC43
:109F40006E600301A00B900002D6E0FBA3E0FAA331
:109F5000E0F9E9240CF9EA3400FA120070F1FFAEDE
:109F6000F090002D39E0FBA3E0FAA3E0F9120070B5
:109F7000F1FDACF0EF6D7002EE6C600301A00B9090
:109F8000002D39E0FBA3E0FAA3E0F9E92402F9EAA5
:109F90003400FA120070F1FFAEF0900002D6E0FB40
:109FA000A3E0FAA3E0F9E9240EF9EA3400FA12007A
:109FB00070F1FDACF0ED6F7002EC6E704E90002D04
:109FC00039E0FBA3E0FAA3E0F9E92419F9EA340047
:109FD000FA1200704EFFEF6407600301AC76900048
:109FE00002D6E0FBA3E0FAA3E0F9E92421F9EA3480
:109FF00000FA1200704EFFEF543FFFEF640260035F
:10A0000001AC7601A5AD800301AC7690002D3AE459
:10A0100075F023120070C5019E7B900002D6E0FB14
:10A02000A3E0FAA3E0F9E92421F9EA3400FA1200E6
:10A03000704EFFEF543FFFEF64027056900002D65F
:10A04000E0FBA3E0FAA3E0F9E92416F9EA3400FA08
:10A05000120070F1FFAEF07872A60608A6077883AA
:10A0600076007883E6FFEFC3940C50267883E6FFF2
:10A07000EF25E0243BF8E6FE08E6FF7872E6FC08F0
:10A08000E6FDED6F7002EC6E700301A4827883062A
:10A0900080D0900002D6E0FBA3E0FAA3E0F9E92427
:10A0A00021F9EA3400FA1200704EFFEF30E20301AA
:10A0B000C7FA900002D6E0FBA3E0FAA3E0F9E92496
:10A0C00021F9EA3400FA74141200709F7886760041
:10A0D000087628900002D6E0FBA3E0FAA3E0F9E9B5
:10A0E0002420F9EA3400FA74501200709F900002A4
:10A0F000D6E0FBA3E0FAA3E0F9E9241BF9EA340077
:10A10000FA1200704EFF7883A607900002D6E0FB9B
:10A11000A3E0FAA3E0F9E9241FF9EA3400FA1200F7
:10A12000704EFF900002D6E0FBA3E0FAA3E0F9E94D
:10A13000241BF9EA3400FAEF1200709F7883E6FFDF
:10A14000900002D6E0FBA3E0FAA3E0F9E9241FF9AE
:10A15000EA3400FAEF1200709F900002D6E0FBA3F1
:10A16000E0FAA3E0F9E9241AF9EA3400FA120070DF
:10A170004EFF7883A607900002D6E0FBA3E0FAA387
:10A18000E0F9E9241EF9EA3400FA1200704EFF905B
:10A190000002D6E0FBA3E0FAA3E0F9E9241AF9EA09
:10A1A0003400FAEF1200709F7883E6FF900002D629
:10A1B000E0FBA3E0FAA3E0F9E9241EF9EA3400FA8F
:10A1C000EF1200709F900002D6E0FBA3E0FAA3E03C
:10A1D000F9E92419F9EA3400FA1200704EFF788385
:10A1E000A607900002D6E0FBA3E0FAA3E0F9E92479
:10A1F0001DF9EA3400FA1200704EFF900002D6E01A
:10A20000FBA3E0FAA3E0F9E92419F9EA3400FAEF34
:10A210001200709F7883E6FF900002D6E0FBA3E077
:10A22000FAA3E0F9E9241DF9EA3400FAEF1200700C
:10A230009F900002D6E0FBA3E0FAA3E0F9E924181E
:10A24000F9EA3400FA1200704EFF7883A6079000F6
:10A2500002D6E0FBA3E0FAA3E0F9E9241CF9EA3412
:10A2600000FA1200704EFF900002D6E0FBA3E0FA65
:10A27000A3E0F9E92418F9EA3400FAEF1200709F1C
:10A280007883E6FF900002D6E0FBA3E0FAA3E0F9B2
:10A29000E9241CF9EA3400FAEF1200709F900002E2
:10A2A000D6E0FBA3E0FAA3E0F9E9241FF9EA3400C1
:10A2B000FA740112007083FFEF7056900002D6E02E
:10A2C000FBA3E0FAA3E0F9E9241EF9EA3400FA74EA
:10A2D0000112007083FFEF7038900002D6E0FBA3FC
:10A2E000E0FAA3E0F9E9241DF9EA3400FA74011256
:10A2F000007083FFEF701A900002D6E0FBA3E0FA33
:10A30000A3E0F9E9241CF9EA3400FA7401120070A0
:10A3100083900002D6E0FBA3E0FAA3E0F9E924145D
:10A32000F9EA3400FA120070F1FFAEF07872A60676
:10A3300008A607900002D6E0FBA3E0FAA3E0F9E943
:10A340002416F9EA3400FA120070F1FFAEF0900022
:10A3500002D6E0FBA3E0FAA3E0F9E92414F9EA3419
:10A3600000FAEE8FF0120071417872E6FE08E6FF07
:10A37000900002D6E0FBA3E0FAA3E0F9E92416F985
:10A38000EA3400FAEE8FF012007141900002D6E03C
:10A39000FBA3E0FAA3E0F9E92410F9EA3400FA1289
:10A3A0000070F1FFAEF07872A60608A607900002D2
:10A3B000D6E0FBA3E0FAA3E0F9E9240CF9EA3400C3
:10A3C000FA120070F1FFAEF0900002D6E0FBA3E0BD
:10A3D000FAA3E0F9E92410F9EA3400FAEE8FF0125A
:10A3E0000071417872E6FE08E6FF900002D6E0FBBD
:10A3F000A3E0FAA3E0F9E9240CF9EA3400FAEE8FBD
:10A40000F012007141900002D6E0FBA3E0FAA3E055
:10A41000F9E92412F9EA3400FA120070F1FFAEF003
:10A420007872A60608A607900002D6E0FBA3E0FA21
:10A43000A3E0F9E9240EF9EA3400FA120070F1FF02
:10A44000AEF0900002D6E0FBA3E0FAA3E0F9E92425
:10A4500012F9EA3400FAEE8FF0120071417872E6D8
:10A46000FE08E6FF900002D6E0FBA3E0FAA3E0F9C5
:10A47000E9240EF9EA3400FAEE8FF012007141017E
:10A48000C65A7B007AFF79FF90002D39EBF0A3EAE2
:10A49000F0A3E9F0788376007883E6FFEFC39410A9
:10A4A000400301A5767883E6FF75F023EFA424BF6F
:10A4B000F582E5F03400F583759300E0FFEF702638
:10A4C0007883E6FF7E23EF8EF0A4FFAEF074A62F14
:10A4D000F974003EFA7B0190002D39EBF0A3EAF00D
:10A4E000A3E9F001A5767883E6FF75F023EFA424B5
:10A4F000BFF582E5F03400F583759300E0FFEF646B
:10A5000007706D90002D39E0FBA3E0FAA3E0F9AEEF
:10A5100002AF01EF4E603690002D39E0FBA3E0FA68
:10A52000A3E0F9E9241AF9EA3400FA1200704EFFA8
:10A530007883E6FE75F023EEA424C0F582E5F034BE
:10A5400000F583759300E0FEEED39F40237883E609
:10A55000FF7E23EF8EF0A4FFAEF074A62FF97400F7
:10A560003EFA7B0190002D39EBF0A3EAF0A3E9F06D
:10A5700078830601A49890002D39E0FBA3E0FAA3AC
:10A58000E0F9AE02AF01EF64FF7003EE64FF700309
:10A5900001C7FA90002D39E0FBA3E0FAA3E0F9E946
:10A5A0002422F9EA3400FA74101200709F90002DF2
:10A5B00039E0FBA3E0FAA3E0F9AE02AF019000029C
:10A5C000D9EEF0A3EFF090002D39E0FBA3E0FAA361
:10A5D000E0F9E9241AF9EA3400FA74031200709FD2
:10A5E00090002D39E0FBA3E0FAA3E0F9E92418F983
:10A5F000EA3400FA74031200709F90002D39E0FBDA
:10A60000A3E0FAA3E0F9E92416F9EA3400FAE41227
:10A6100000709F90002D39E0FBA3E0FAA3E0F9E978
:10A620002417F9EA3400FA74041200709F90002D88
:10A6300039E0FBA3E0FAA3E0F9E9241BF9EA3400CE
:10A64000FAE41200709F900002D6E0FBA3E0FAA3A8
:10A65000E0F9E92416F9EA3400FA120070F1FFAECD
:10A66000F090002D39E0FBA3E0FAA3E0F9E924041F
:10A67000F9EA3400FAEE8FF012007141900002D630
:10A68000E0FBA3E0FAA3E0F9E92414F9EA3400FAC4
:10A69000120070F1FFAEF090002D39E0FBA3E0FA5C
:10A6A000A3E0F9E92406F9EA3400FAEE8FF012008B
:10A6B0007141900002D6E0FBA3E0FAA3E0F9E9249F
:10A6C0000CF9EA3400FA120070F1FFAEF090002DA0
:10A6D00039E0FBA3E0FAA3E0F9EE8FF0120071413C
:10A6E000900002D6E0FBA3E0FAA3E0F9E9240EF91A
:10A6F000EA3400FA120070F1FFAEF090002D39E05C
:10A70000FBA3E0FAA3E0F9E92402F9EA3400FAEE47
:10A710008FF01200714190002D39E0FBA3E0FAA305
:10A72000E0F9E92419F9EA3400FA74011200709F83
:10A7300090002D39E0FBA3E0FAA3E0F9E9241EF92B
:10A74000EA3400FAE41200709F90002D39E0FBA378
:10A75000E0FAA3E0F9E92420F9EA3400FAE475F01C
:10A76000001200714190002D39E0FBA3E0FAA3E054
:10A77000F9E9241FF9EA3400FAE41200709F787EA8
:10A78000E6FF90002D39E0FBA3E0FAA3E0F9E9240D
:10A790000CF9EA3400FAEF1200709F787FE6FF9020
:10A7A000002D39E0FBA3E0FAA3E0F9E9240DF9EA72
:10A7B0003400FAEF1200709F7880E6FF90002D3988
:10A7C000E0FBA3E0FAA3E0F9E9240EF9EA3400FA89
:10A7D000EF1200709F7881E6FF90002D39E0FBA317
:10A7E000E0FAA3E0F9E9240FF9EA3400FAEF1200E5
:10A7F000709F90002D39E0FBA3E0FAA3E0F9E92473
:10A8000010F9EA3400FAE475F00112007141900089
:10A8100002D6E0FBA3E0FAA3E0F9E9241BF9EA344D
:10A8200000FA1200704EFF90002D39E0FBA3E0FA11
:10A83000A3E0F9E9240BF9EA3400FAEF1200709F63
:10A84000900002D6E0FBA3E0FAA3E0F9E9241AF9AC
:10A85000EA3400FA1200704EFF90002D39E0FBA39D
:10A86000E0FAA3E0F9E9240AF9EA3400FAEF120069
:10A87000709F900002D6E0FBA3E0FAA3E0F9E92480
:10A8800019F9EA3400FA1200704EFF90002D39E0F9
:10A89000FBA3E0FAA3E0F9E92409F9EA3400FAEFAE
:10A8A0001200709F900002D6E0FBA3E0FAA3E0F94B
:10A8B000E92418F9EA3400FA1200704EFF90002DD6
:10A8C00039E0FBA3E0FAA3E0F9E92408F9EA34004F
:10A8D000FAEF1200709F7F017E0012021E8C900022
:10A8E00002D6E0FBA3E0FAA3E0F9E92422F9EA3476
:10A8F00000FA1200704EFF90002D39E0FBA3E0FA41
:10A90000A3E0F9E9241CF9EA3400FAEF1200709F81
:10A91000900002D6E0FBA3E0FAA3E0F9E92423F9D2
:10A92000EA3400FA1200704EFF90002D39E0FBA3CC
:10A93000E0FAA3E0F9E9241DF9EA3400FAEF120085
:10A94000709F900002D6E0FBA3E0FAA3E0F9E924AF
:10A9500020F9EA3400FA1200704EFFEF54F0FFEFD6
:10A96000D39450500301AB9678837600900002D6C2
:10A97000E0FBA3E0FAA3E0F9E92420F9EA3400FAC5
:10A980001200704EFFEFC4540FFF7E00C3EF94051A
:10A99000FFEE9400FEEF7802C333CE33CED8F9FF3A
:10A9A0007883E6FD7C00C3ED9FEE6480F8EC648064
:10A9B00098400301AB967883E6FF7E0090000F1E5F
:10A9C000E0FD7C00ED2FFFEC3EFE9000134FE0FD1C
:10A9D0007C00EF2DFFEE3CFE74032FF58274033EE6
:10A9E000F583759300E0FF7882A6077882E6FFEF93
:10A9F000700601AB9601A96C7882E6FFEFB4010600
:10AA000078830601A96C7882E6FFEF640260030197
:10AA1000AB297883E6FF7E0090000F1EE0FD7C00EE
:10AA2000ED2FFFEC3EFE9000134FE0FD7C00EF2D7C
:10AA3000FFEE3CFE74042FF58274033EF58375939C
:10AA400000E0FFEF6404600301AB297883E6FF7E3A
:10AA50000090000F1EE0FD7C00ED2FFFEC3EFE900D
:10AA600000134FE0FD7C00EF2DFFEE3CFE74052F40
:10AA7000F58274033EF583759300E0FF7E00EF7F5F
:10AA800000FE7883E6FD7C0090000F1EE0FB7A005C
:10AA9000EB2DFDEA3CFC9000134FE0FB7A00ED2B20
:10AAA000FDEC3AFC74062DF58274033CF583759336
:10AAB00000E0FD7C00EE4CFEEF4DFF7872A606082C
:10AAC000A60790001349E0FEA3E0FF7872E6FC08B9
:10AAD000E6FDD3ED9FEC9E400B90001349E0FEA3F2
:10AAE000E0FF80077872E6FE08E6FF90002D39E06F
:10AAF000FBA3E0FAA3E0F9E92412F9EA3400FAEE44
:10AB00008FF0FEAFF01200714190002D39E0FBA3F1
:10AB1000E0FAA3E0F9E92414F9EA3400FAEE8FF040
:10AB200012007141807001A96C7883E6FF7E00906D
:10AB3000000F1EE0FD7C00ED2FFFEC3EFE900013A9
:10AB40004FE0FD7C00EF2DFFEE3CFE74042FF582FC
:10AB500074033EF583759300E0FFEF60397883E678
:10AB6000FF7E0090000F1EE0FD7C00ED2FFFEC3E0D
:10AB7000FE9000134FE0FD7C00EF2DFFEE3CFE74D5
:10AB8000042FF58274033EF583759300E0FF78830C
:10AB9000EF26F601A96C900002D6E0FBA3E0FAA331
:10ABA000E0F9E92421F9EA3400FA74101200709FE8
:10ABB000900002D6E0FBA3E0FAA3E0F9E92421F932
:10ABC000EA3400FA1200704EFFEF4402FFEF120069
:10ABD000709F900002D6E0FBA3E0FAA3E0F9E9241D
:10ABE00028F9EA3400FA74021200709F900002D62D
:10ABF000E0FBA3E0FAA3E0F9E92429F9EA3400FA3A
:10AC000074041200709F90001349E0FEA3E0FFEE71
:10AC1000FF7E00900002D6E0FBA3E0FAA3E0F9E992
:10AC2000242AF9EA3400FAEF1200709F90001349C9
:10AC3000E0FEA3E0FFEF54FFFF900002D6E0FBA38D
:10AC4000E0FAA3E0F9E9242BF9EA3400FAEF120064
:10AC5000709F7886760008762C900002D6E0FBA3E1
:10AC6000E0FAA3E0F9E92420F9EA3400FA7460126A
:10AC700000709F01C31790002D39E0FBA3E0FAA3F9
:10AC8000E0F9AE02AF01900002D9EEF0A3EFF07848
:10AC9000747600900008C7E4F0900002D6E0FBA3B1
:10ACA000E0FAA3E0F9E92421F9EA3400FA1200708D
:10ACB0004EFFEF30E22490002D39E0FBA3E0FAA331
:10ACC000E0F9E92419F9EA3400FAE41200709F78F7
:10ACD0007476201201000001C7FA900002D6E0FB52
:10ACE000A3E0FAA3E0F9E92420F9EA3400FA12001B
:10ACF000704EFFEFC4540FFFEF25E025E0FF78838F
:10AD0000A6077883E6FF7E007886E6FC08E6FDC3AA
:10AD1000ED9FFFEC9EFEC3EF9414FFEE9400FE78CF
:10AD200086A60608A6077886E6FE08E6FFD3EF9417
:10AD300000EE94005020900002D6E0FBA3E0FAA3BE
:10AD4000E0F9E92421F9EA3400FA1200704EFFEF2D
:10AD500020E00301AE3A90002D39E0FBA3E0FAA316
:10AD6000E0F9E92408F9EA3400FA1200704EFF9085
:10AD70000002D6E0FBA3E0FAA3E0F9E92418F9EA1F
:10AD80003400FA1200704EFEEE6F600301C2DC90D8
:10AD9000002D39E0FBA3E0FAA3E0F9E92409F9EA80
:10ADA0003400FA1200704EFF900002D6E0FBA3E0E0
:10ADB000FAA3E0F9E92419F9EA3400FA1200704E16
:10ADC000FEEE6F600301C2DC90002D39E0FBA3E0D2
:10ADD000FAA3E0F9E9240AF9EA3400FA1200704E05
:10ADE000FF900002D6E0FBA3E0FAA3E0F9E9241A01
:10ADF000F9EA3400FA1200704EFEEE6F600301C2F1
:10AE0000DC90002D39E0FBA3E0FAA3E0F9E9240B84
:10AE1000F9EA3400FA1200704EFF900002D6E0FB0F
:10AE2000A3E0FAA3E0F9E9241BF9EA3400FA1200DE
:10AE3000704EFEEE6F600301C2DC900002D6E0FBB4
:10AE4000A3E0FAA3E0F9E92421F9EA3400FA1200B8
:10AE5000704EFFEF20E40301B47290002D39E0FB47
:10AE6000A3E0FAA3E0F9E92410F9EA3400FA1200A9
:10AE700070F1FFAEF0EF4E700301B47290002D3907
:10AE8000E0FBA3E0FAA3E0F9E9240CF9EA3400FAC4
:10AE9000C003C002C00190002D39E0FBA3E0FAA37B
:10AEA000E0F9E92410F9EA3400FA120070F1FDAC7F
:10AEB000F0D001D002D00312020123900002D6E0AC
:10AEC000FBA3E0FAA3E0F9E9241CF9EA3400FA1242
:10AED00000704EFF9000009FE0FEEF6E600301B136
:10AEE000A8900002D6E0FBA3E0FAA3E0F9E9241D54
:10AEF000F9EA3400FA1200704EFF900000A0E0FE64
:10AF0000EF6E600301B1A8900002D6E0FBA3E0FA67
:10AF1000A3E0F9E9241EF9EA3400FA1200704EFFAA
:10AF2000900000A1E0FEEF6E600301B1A890000266
:10AF3000D6E0FBA3E0FAA3E0F9E9241FF9EA340024
:10AF4000FA1200704EFF900000A2E0FEEF6E600368
:10AF500001B1A89000009FE0FF90002D39E0FBA315
:10AF6000E0FAA3E0F9E9240CF9EA3400FAEF120060
:10AF7000709F900000A0E0FF90002D39E0FBA3E05F
:10AF8000FAA3E0F9E9240DF9EA3400FAEF120070AF
:10AF90009F900000A1E0FF90002D39E0FBA3E0FAB4
:10AFA000A3E0F9E9240EF9EA3400FAEF1200709FE9
:10AFB000900000A2E0FF90002D39E0FBA3E0FAA38F
:10AFC000E0F9E9240FF9EA3400FAEF1200709F90DB
:10AFD000002D39E0FBA3E0FAA3E0F9E9241BF9EA2C
:10AFE0003400FA1200704EFFEF600301B13A900096
:10AFF0002D39E0FBA3E0FAA3E0F9E9241AF9EA34D9
:10B0000000FA1200704EFF90002D39E0FBA3E0FA29
:10B01000A3E0F9E92418F9EA3400FA1200704EFEB0
:10B02000C3EE9FFF90002D3CEFF090002D3CE0FF21
:10B0300090002D39E0FBA3E0FAA3E0F9E92416F92A
:10B04000EA3400FA1200704EFEEE131313541FFE82
:10B05000C3EF9EFF90002D3CEFF090002D3CE0FFF1
:10B0600090002D39E0FBA3E0FAA3E0F9E92416F9FA
:10B07000EA3400FAEF1200708390002D3CE0FFC329
:10B08000EF64809480501090002D3CE0FFEFF404BA
:10B09000FF90002D3CEFF090002D3CE0FF90002D44
:10B0A00039E0FBA3E0FAA3E0F9E92417F9EA340058
:10B0B000FA1200704EFEEE1313543FFEC3EF9EFFD4
:10B0C00090002D3CEFF090002D3CE0FF90002D39DA
:10B0D000E0FBA3E0FAA3E0F9E92417F9EA3400FA67
:10B0E000EF1200708390002D39E0FBA3E0FAA3E09B
:10B0F000F9E92416F9EA3400FA1200704EFFEF1352
:10B100001313541FFF90002D39E0FBA3E0FAA3E0D6
:10B11000F9E92417F9EA3400FA1200704EFEEF2E16
:10B12000FF90002D39E0FBA3E0FAA3E0F9E9241831
:10B13000F9EA3400FAEF1200709F787476019000FB
:10B140002D39E0FBA3E0FAA3E0F9E92418F9EA3489
:10B1500000FA1200704EFF90002D39E0FBA3E0FAD8
:10B16000A3E0F9E9241AF9EA3400FAEF1200709F1B
:10B1700090002D39E0FBA3E0FAA3E0F9E92420F9DF
:10B18000EA3400FAE475F0001200714190002D39A4
:10B19000E0FBA3E0FAA3E0F9E9241FF9EA3400FA9E
:10B1A000E41200709F01B47290002D39E0FBA3E01F
:10B1B000FAA3E0F9E9240CF9EA3400FA1200704E1F
:10B1C000FF900002D6E0FBA3E0FAA3E0F9E9241C1B
:10B1D000F9EA3400FA1200704EFEEE6F600301B41B
:10B1E0007290002D39E0FBA3E0FAA3E0F9E9240D09
:10B1F000F9EA3400FA1200704EFF900002D6E0FB2C
:10B20000A3E0FAA3E0F9E9241DF9EA3400FA1200F8
:10B21000704EFEEE6F600301B47290002D39E0FBBA
:10B22000A3E0FAA3E0F9E9240EF9EA3400FA1200E7
:10B23000704EFF900002D6E0FBA3E0FAA3E0F9E92C
:10B24000241EF9EA3400FA1200704EFEEE6F60031D
:10B2500001B47290002D39E0FBA3E0FAA3E0F9E914
:10B26000240FF9EA3400FA1200704EFF900002D663
:10B27000E0FBA3E0FAA3E0F9E9241FF9EA3400FABD
:10B280001200704EFEEE6F600301B472900008C7AA
:10B29000E0FFEF4480FF900008C7EFF090002D39E9
:10B2A000E0FBA3E0FAA3E0F9E9241BF9EA3400FA91
:10B2B0001200704EFFEF600301B40790002D39E0DB
:10B2C000FBA3E0FAA3E0F9E9241AF9EA3400FA1240
:10B2D00000704EFF90002D39E0FBA3E0FAA3E0F9E7
:10B2E000E92418F9EA3400FA1200704EFEC3EE9F0A
:10B2F000FF90002D3CEFF090002D3CE0FF90002DE2
:10B3000039E0FBA3E0FAA3E0F9E92416F9EA3400F6
:10B31000FA1200704EFEEE131313541FFEC3EF9E7D
:10B32000FF90002D3CEFF090002D3CE0FF90002DB1
:10B3300039E0FBA3E0FAA3E0F9E92416F9EA3400C6
:10B34000FAEF1200708390002D3CE0FFC3EF6480A1
:10B350009480501090002D3CE0FFEFF404FF90002B
:10B360002D3CEFF090002D3CE0FF90002D39E0FBEC
:10B37000A3E0FAA3E0F9E92417F9EA3400FA12008D
:10B38000704EFEEE1313543FFEC3EF9EFF90002D50
:10B390003CEFF090002D3CE0FF90002D39E0FBA346
:10B3A000E0FAA3E0F9E92417F9EA3400FAEF120011
:10B3B000708390002D39E0FBA3E0FAA3E0F9E924C3
:10B3C00016F9EA3400FA1200704EFFEF131313540B
:10B3D0001FFF90002D39E0FBA3E0FAA3E0F9E92478
:10B3E00017F9EA3400FA1200704EFEEF2EFF9000BB
:10B3F0002D39E0FBA3E0FAA3E0F9E92418F9EA34D7
:10B4000000FAEF1200709F7874760190002D39E0F9
:10B41000FBA3E0FAA3E0F9E92418F9EA3400FA12F0
:10B4200000704EFF90002D39E0FBA3E0FAA3E0F995
:10B43000E9241AF9EA3400FAEF1200709F90002D07
:10B4400039E0FBA3E0FAA3E0F9E92420F9EA3400AB
:10B45000FAE475F0001200714190002D39E0FBA371
:10B46000E0FAA3E0F9E9241FF9EA3400FAE4120053
:10B47000709F900002D6E0FBA3E0FAA3E0F9E92474
:10B4800022F9EA3400FA1200704EFFEFC3944050E4
:10B490002F90002D39E0FBA3E0FAA3E0F9E9241C8A
:10B4A000F9EA3400FA1200704EFFEFD39480401096
:10B4B000900008C7E0FFEF4440FF900008C7EFF09E
:10B4C00090002D39E0FBA3E0FAA3E0F9E92419F993
:10B4D000EA3400FA1200704EFFEF540FFFEF120033
:10B4E0007398B4FE01B57B02B98903C0E704C204B6
:10B4F00005C29B06C2DC07C0B8080000C7FA787412
:10B50000E6FFEF20E00301C7FA90002D39E0FBA32E
:10B51000E0FAA3E0F9E92419F9EA3400FA74031215
:10B5200000709F7874764090002D39E0FBA3E0FA1C
:10B53000A3E0F9E92410F9EA3400FAE475F0001206
:10B540000071417886E6FE08E6FFD3EF9400EE94A2
:10B550000040177874E6FFEF4402FF7874A607787E
:10B5600086E6FE08E6FF12021E8C788476000876D6
:10B57000001201000001BDC301C7FA7874E6FFEFB5
:10B5800020E00301B97E900002D6E0FBA3E0FAA31D
:10B59000E0F9E92421F9EA3400FA1200704EFFEFD5
:10B5A0006412600301B97E900002D6E0FBA3E0FACA
:10B5B000A3E0F9E92420F9EA3400FA1200704EFF02
:10B5C000EF54F0FFEFD39450500301B7FB7883762C
:10B5D00000900002D6E0FBA3E0FAA3E0F9E9242002
:10B5E000F9EA3400FA1200704EFFEFC4540FFF7EE8
:10B5F00000C3EF9405FFEE9400FEEF7802C333CE54
:10B6000033CED8F9FF7883E6FD7C00C3ED9FEE646E
:10B6100080F8EC648098400301B7FB7883E6FF7EF6
:10B620000090000F1EE0FD7C00ED2FFFEC3EFE9031
:10B6300000134FE0FD7C00EF2DFFEE3CFE74032F66
:10B64000F58274033EF583759300E0FF7882A607C8
:10B650007882E6FFEF700601B7FB01B5D17882E68C
:10B66000FFEFB4010678830601B5D17882E6FFEFDB
:10B670006402600301B78E7883E6FF7E0090000FBE
:10B680001EE0FD7C00ED2FFFEC3EFE9000134FE02E
:10B69000FD7C00EF2DFFEE3CFE74042FF582740359
:10B6A0003EF583759300E0FFEF6404600301B78EFD
:10B6B0007883E6FF7E0090000F1EE0FD7C00ED2FFA
:10B6C000FFEC3EFE9000134FE0FD7C00EF2DFFEEFF
:10B6D0003CFE74052FF58274033EF583759300E0FC
:10B6E000FF7E00EF7F00FE7883E6FD7C0090000F78
:10B6F0001EE0FB7A00EB2DFDEA3CFC9000134FE0CE
:10B70000FB7A00ED2BFDEC3AFC74062DF5827403F8
:10B710003CF583759300E0FD7C00EE4CFEEF4DFFA1
:10B720007872A60608A60790001349E0FEA3E0FF82
:10B730007872E6FC08E6FDD3ED9FEC9E400B90008E
:10B740001349E0FEA3E0FF80077872E6FE08E6FFFB
:10B7500090002D39E0FBA3E0FAA3E0F9E92412F907
:10B76000EA3400FAEE8FF0FEAFF012007141900063
:10B770002D39E0FBA3E0FAA3E0F9E92414F9EA3457
:10B7800000FAEE8FF012007141807001B5D178831C
:10B79000E6FF7E0090000F1EE0FD7C00ED2FFFEC29
:10B7A0003EFE9000134FE0FD7C00EF2DFFEE3CFECF
:10B7B00074042FF58274033EF583759300E0FFEF68
:10B7C00060397883E6FF7E0090000F1EE0FD7C006C
:10B7D000ED2FFFEC3EFE9000134FE0FD7C00EF2DBF
:10B7E000FFEE3CFE74042FF58274033EF5837593DF
:10B7F00000E0FF7883EF26F601B5D190002D39E007
:10B80000FBA3E0FAA3E0F9E92419F9EA3400FA7499
:10B81000031200709F900002D6E0FBA3E0FAA3E0C1
:10B82000F9E92418F9EA3400FA1200704EFF90008A
:10B830002D39E0FBA3E0FAA3E0F9E92408F9EA34A2
:10B8400000FAEF1200709F900002D6E0FBA3E0FA2E
:10B85000A3E0F9E92419F9EA3400FA1200704EFF66
:10B8600090002D39E0FBA3E0FAA3E0F9E92409F9FF
:10B87000EA3400FAEF1200709F900002D6E0FBA3BA
:10B88000E0FAA3E0F9E9241AF9EA3400FA120070A8
:10B890004EFF90002D39E0FBA3E0FAA3E0F9E92484
:10B8A0000AF9EA3400FAEF1200709F900002D6E025
:10B8B000FBA3E0FAA3E0F9E9241BF9EA3400FA1249
:10B8C00000704EFF90002D39E0FBA3E0FAA3E0F9F1
:10B8D000E9240BF9EA3400FAEF1200709F7F017E31
:10B8E0000012021E8C900002D6E0FBA3E0FAA3E057
:10B8F000F9E92422F9EA3400FA1200704EFF9000B0
:10B900002D39E0FBA3E0FAA3E0F9E9241CF9EA34BD
:10B9100000FAEF1200709F900002D6E0FBA3E0FA5D
:10B92000A3E0F9E92423F9EA3400FA1200704EFF8B
:10B9300090002D39E0FBA3E0FAA3E0F9E9241DF91A
:10B94000EA3400FAEF1200709F7874764290002D6E
:10B9500039E0FBA3E0FAA3E0F9E92410F9EA3400A6
:10B96000FAE475F0001200714178867600087600DE
:10B97000788476000876001201000001BDC3787457
:10B9800076201201000001A092900002D6E0FBA3F5
:10B99000E0FAA3E0F9E92421F9EA3400FA12007090
:10B9A0004EFFEF20E00301BA677886E6FE08E6FF67
:10B9B000EF2401FFEE3400FE12021E8C7874761024
:10B9C0007886E6FE08E6FFD3EF9400EE9400400C84
:10B9D0007874E6FFEF4402FF7874A60712010000B6
:10B9E000900002D9E0FEA3E0FFAA06A9077B019020
:10B9F000002D39EBF0A3EAF0A3E9F090002D39E037
:10BA0000FBA3E0FAA3E0F9E92410F9EA3400FAE430
:10BA100075F0011200714190002D39E0FBA3E0FAAE
:10BA2000A3E0F9E92419F9EA3400FA740812007065
:10BA30009F90002D39E0FBA3E0FAA3E0F9E9241B75
:10BA4000F9EA3400FAE41200709F900002D6E0FB9D
:10BA5000A3E0FAA3E0F9E92421F9EA3400FA741129
:10BA60001200709F01C2F6900002D6E0FBA3E0FA3C
:10BA7000A3E0F9E92421F9EA3400FA1200704EFF3C
:10BA8000EF20E50301BB32900002D6E0FBA3E0FA11
:10BA9000A3E0F9E92426F9EA3400FA1200704EFF17
:10BAA0007F00900002D6E0FBA3E0FAA3E0F9E924CE
:10BAB00027F9EA3400FA1200704EFEEF4EFF787557
:10BAC000A6077875E6FF7E007886E6FC08E6FDD3DB
:10BAD000EF9DEE9C400B7886E6FE08E6FF7875A6A3
